:020000040801F1
:1010000060DD01209D110108437201084968010853
:1010100031720108413A0108C9A30108000000002B
:10102000000000000000000000000000C988010866
:101030001156010800000000F9770108198C010819
:10104000D9A30108B7110108B7110108B7110108A8
:10105000B7110108B7110108B7110108B71101084C
:10106000B7110108B7110108B7110108B71101083C
:10107000B7110108B7110108B7110108B71101082C
:10108000B7110108B7110108B7110108B71101081C
:10109000B7110108B7110108B7110108B71101080C
:1010A000B7110108B7110108B7110108B7110108FC
:1010B000798C0108B7110108B7110108B7110108AF
:1010C000B7110108B7110108B7110108B7110108DC
:1010D000B71101081DA1010841A10108B7110108BC
:1010E000C9560108B7110108B7110108B711010865
:1010F000B7110108B7110108B7110108B7110108AC
:10110000B7110108B17D0108118D0108B71101085F
:10111000B7110108B7110108318E0108958F010838
:10112000B7110108B7110108B711010849540108A6
:10113000B7110108B7110108B7110108B71101086B
:10114000B7110108B7110108B7110108B71101085B
:10115000B7110108B7110108B7110108B71101084B
:10116000B7110108B7110108B7110108B71101083B
:10117000B7110108B7110108B7110108B71101082B
:10118000B7110108B7110108DFF80CD000F08CFD91
:10119000004800478959020860DD01200648804761
:1011A00006480047FEE7FEE7FEE7FEE7FEE7FEE74C
:1011B000FEE7FEE7FEE7FEE71D8C01088911010846
:1011C00040EA01039B0703D009E008C9121F08C0C9
:1011D000042AFAD203E011F8013B00F8013B521E49
:1011E000F9D27047D2B201E000F8012B491EFBD2C0
:1011F00070470022F6E710B513460A460446194622
:10120000FFF7F0FF204610BD421E12F8013F002BF1
:10121000FBD111F8013B02F8013B002BF9D17047DB
:1012200030B505462A460B4612F8010B13F8014B60
:1012300008B1A042F8D01CB1002802D06D1CF1E723
:10124000284630BD10B5044604E00B7800F8013B99
:1012500003B1491C521EF8D2204610BDCAB2401E2E
:1012600010F8011F8A4202D00029F9D100207047EE
:10127000421C10F8011B0029FBD1801A704710B5E1
:10128000002200E0521C835C8C5CA34201D1002B45
:10129000F8D1D8B2E1B2401A10BD034611F8012BC3
:1012A00000F8012B002AF9D11846704730B50546E1
:1012B0000020034600E05B1C934205D2EC5CC85C56
:1012C000201A01D1002CF6D130BD2DE9F04791460E
:1012D0000F4680460446002614F8015B2DB100F04D
:1012E000E1FA0068405DC007F6D12B2D02D02D2D0C
:1012F00018D0641E4A463946204600F0E0FA27B16D
:101300003968A14201D1C7F8008071054FF002048D
:101310000BD54042002803DD09F0F6F80460A00771
:10132000BDE8F08746F48066E4E70028F8DA09F0C3
:10133000EBF804606FF00040F2E72DE9FE4F8046C5
:1013400081EA0300C00F0C46009021F0004123F019
:101350000045B8EB0200A94105D24046214690461F
:101360001C460B46024623F00040104347D0270D91
:10137000C7F30A00C3F30A510290401A01904028B3
:101380006BDAC3F3130040F4801B0098924620B13F
:101390000023D2EB030A63EB0B0B01985946C0F113
:1013A0004002504600F04DFA06460D46504659465A
:1013B000019A00F065FA10EB08006141002487EA09
:1013C000115284EAE7731A4340D0009A62B3019A3B
:1013D000012A4FEA075215DC001B61EB02014FF0B6
:1013E000004202EA0752CDE90042001C41F580119B
:1013F00032462B4600F046FB03B0BDE8F08F404676
:101400002146F9E7001B61EB0201001C41F5801346
:1014100000185B412018A2F5001747EB030140EAD2
:10142000D570B6196D4111E06D084FEA360645EAF0
:10143000C0754FEA0752001B61EB0201001C41F529
:10144000801149084FEA30000019514132462B46BD
:1014500003B0BDE8F04F00F006BB00980122400049
:101460000023D0EB020263EBE073009821464FEAC1
:10147000E074B8EB000061EB0401E9E783F000439E
:101480005BE781F0004158E72DE9FE4F81EA030454
:1014900004F0004421F0004100944FF0000B23F0D1
:1014A000004350EA01045ED052EA03045BD0C3F368
:1014B0000A54C1F30A552C44A4F2F3340194A0FB5E
:1014C0000254C1F3130141F48011C3F3130343F435
:1014D000801301FB024400FB034E840A970A44EA8E
:1014E000815447EA8357A4FB076802958D0A05FBE0
:1014F00007854FEA932C04FB0C542705029D4FEA05
:10150000065847EA1637B5EB08056EEB070C870E51
:10151000920E47EA811742EA8312A7FB0201B6EB5B
:101520000B0164EB00042B0D43EA0C335E1844EB13
:101530001C50DA465146E7FB0201C5F313044FEA9B
:101540000B3343EA14534FEA0432019C43EA060387
:10155000A4F10C040294009CCDE900B400F092FACE
:1015600003B0BDE8F08F00200146F9E72DE9F04D0A
:1015700081EA030404F0004B21F0004514464FF0CB
:10158000000A23F0004150EA050220D054EA01028B
:101590001DD0C5F30A570246C5F31303C1F3130068
:1015A000C1F30A5640F4801543F48013A7EB0608F4
:1015B000101BD64608F2FD3873EB050002D308F184
:1015C000010801E092185B41B8F1000F03DA002036
:1015D0000146BDE8F08D00204FF480110646844698
:1015E0000EE0171B73EB050705D3121B63EB050316
:1015F00006434CEA010C49084FEA300092185B415F
:1016000050EA0107EDD152EA030012D082EA040049
:1016100083EA0501084305D0101BAB4106D2012225
:10162000002306E000224FF0004302E06FF00102C9
:1016300053101AEB06004CEB085110EB0A0041EB7B
:101640000B01BDE8F04D00F00EBA0EB5C10F80EAF7
:10165000E0700844CA07002140F233438DE80E00D1
:101660000A460B4600F00EFA03B000BD0EB540F27C
:10167000334102910021CDE900110A460B4600F0EA
:1016800001FA03B000BD70B5C1F30A5201F0004584
:101690000024C1F3130140F2FF3341F480119A4258
:1016A00001DA002070BD40F233439A42A2F2334285
:1016B00003DC524200F0D4F800E090402C43F1D01B
:1016C000404270BDC1F30A5210B5C1F3130140F29C
:1016D000FF3341F480119A4201DA002010BD40F23C
:1016E00033439A42A2F2334203DC524200F0B8F88C
:1016F00010BD904010BD00F0004230F000400AD014
:10170000C10D01F56071C0F3160042EA0151C20833
:1017100040071143704700200146704730B5041E52
:1017200071F1000404DB4FF00044404264EB01011E
:10173000141E73F1000405DB1C464FF000435242B7
:1017400063EB04038B4208BF824230BD30B5041EF8
:1017500071F1000404DB4FF00044404264EB0101EE
:10176000141E73F1000405DB1C464FF00043524287
:1017700063EB0403994208BF904230BD01F000437F
:1017800030B421F0004150EA010206D00A0DA2F562
:101790006072C1F31301002A02DC30BC00207047E4
:1017A000440F44EAC104C100E01830BC00EBC25051
:1017B00000F022B930B50B4601460020202201245A
:1017C00009E021FA02F59D4205D303FA02F5491B0F
:1017D00004FA02F52844151EA2F10102F1DC30BD25
:1017E0002DE9F05F0546002092469B468846064656
:1017F000814640241BE0284641464746224600F0E9
:101800002FF853465A46C01A914110D31146184634
:10181000224600F016F82D1A67EB01084F462246C3
:101820000120002100F00DF817EB00094E41201EA9
:10183000A4F10104DFDC484631462A464346BDE8B0
:10184000F09F202A04DB203A00FA02F100207047C2
:101850009140C2F1200320FA03F3194390407047EE
:10186000202A04DB203A21FA02F00021704721FAF5
:1018700002F3D040C2F1200291400843194670475C
:10188000202A06DBCB17203A41FA02F043EAE07344
:1018900006E041FA02F3D040C2F120029140084331
:1018A000194670470048704784D6050810B50446AD
:1018B000FFF7F8FF0068005D00F0010010BD2DE9A2
:1018C000F05F82460078002715468B460AF1010436
:1018D000B946302801D09DB113E014F8010B01275F
:1018E000782803D0582801D045B10AE00DB1102D59
:1018F00007D10027102514F8010B02E0082500E0AD
:101900000A250026B0460EE005FB080005FB06F19F
:10191000012701EB10461FFA80F8B6F5803F00D38F
:10192000B94614F8010B294600F0D0F90028EBDA8B
:10193000BBF1000F05D00FB1641E00E05446CBF898
:101940000040B9F1000F06D008F0DEFD0221016071
:10195000C81EBDE8F09F48EA0640FAE70FB400232E
:1019600000B589B00CA900910B996FF00042CB60D3
:101970001E4B06931E4B07930423CDE901321D4AEB
:10198000089202466B46002000F02EFA09B05DF87E
:1019900014FB70B586B006464FF0FF300091CDE9DC
:1019A0000101002015460C4604903246694604A801
:1019B000FFF7D4FF02460498211825B108B1084664
:1019C00000E020462860049800280DD0002A02DD9F
:1019D0000098884208D0081B0094CDE901043246E3
:1019E000694604A8FFF7BAFF06B070BD21200108C0
:1019F0003F200108AD1801080029A8BF7047401C0E
:101A0000490008BF20F00100704710B4B0FA80FC14
:101A100000FA0CF050EA010404BF10BC704749B151
:101A2000CCF1200421FA04F411FA0CF118BF0121C1
:101A300021430843A3EB0C01CB1D4FEA00614FEAA1
:101A4000102042BF002010BC704700EBC350104470
:101A50000029A4BF10BC7047401C490008BF20F0FB
:101A6000010010BC704710B5141E73F1000408DAB1
:101A7000401C41F1000192185B411A4301D120F052
:101A8000010010BD2DE9F04D92469B4611B1B1FA0F
:101A900081F202E0B0FA80F220329046FFF7D1FEE8
:101AA00004460F4640EA0A0041EA0B0153465A46F3
:101AB000084313D0114653EA010019D0C8F140027F
:101AC0005046FFF7CDFE05460E4650465946424663
:101AD000FFF7B7FE084305D0012004E02046394651
:101AE000BDE8F08D0020054346EAE0762C433743FD
:101AF0000A986305E40AA0EB08000022FD0A44EA04
:101B000047540A3002D500200146E9E701051019C3
:101B10006941DDE9084500196941BDE8F04DA2E7DA
:101B200070B521F0004303430CD0C1F30A550024E3
:101B3000D5EB040564EB0403D617AD1AB34102DB01
:101B40000020014670BD201841EB025170BD2DE907
:101B5000F04D00231A461B1A8A4103DB0020014680
:101B6000BDE8F08DC1F30A52C1F3130141F48015B1
:101B70004FF0000BD10702D100186D41521E002713
:101B8000044640F2FF11384601EB620A3E468046A9
:101B9000024600204FF48011FFF762FEC219714126
:101BA000BB1846EB0100B4EB030C75EB000C04D33F
:101BB000E41A65EB000517460E46241908F10100EA
:101BC0006D4180463428E3DDF91946EB0600091B18
:101BD000A84103D24FF0FF32134601E00022134622
:101BE0001BEB070046EB0A51BDE8F04DFFF73BBF8A
:101BF0002DE9F041054621F000400C46284309D06C
:101C0000C4F30A5040F23341884205DD284621469C
:101C1000BDE8F0812846FBE740F2FE31884210DC47
:101C20000CDB4FEA043040EA155050EA053105D08C
:101C3000104804F0004101430020E9E7002001467C
:101C4000E6E7A0F233404642C6F14002284621466C
:101C5000FFF7F7FD07468846284621463246FFF73C
:101C6000FFFD43463A46FFF7FEFE3246BDE8F0412F
:101C7000FFF7E7BD0000F03FC1F30A52C1F31301C3
:101C800040F2FF3341F480119A4202DA002001460B
:101C9000704740F233439A42A2F2334202DC52428E
:101CA000FFF7DEBDFFF7CDBD064C074D06E0E0684F
:101CB00040F0010394E8070098471034AC42F6D393
:101CC000FFF766FA90E70508B0E705083A2800D262
:101CD000303820F02002412A01D3A2F13700884297
:101CE00001D34FF0FF3070472DE9FF4F087881B0E6
:101CF0009946FF2805D0491C2D2804D00024002334
:101D000008E000230BE00124F9E703EB830300EB79
:101D10004303491C0878FF28F7D104B15B42002037
:101D20000090147801462D2C01D02B2C04D1521C8C
:101D30002D2C12D00024009400251678FF2E0ED0F2
:101D40000A24A0FB04C801FB0481002700FB071143
:101D5000521C16EB0C006941EFE70124EBE79944B4
:101D600050EA01020ED00024AA4D2646DFF8A882D0
:101D700000F076F982468B46B9F1000009DAC9F124
:101D800000071BE001980021C0E9001105B0BDE883
:101D9000F08F074612E0F80707D022462B46304660
:101DA0004146FFF771FB0646884622462B46104601
:101DB0001946FFF769FB04460D467F10002FEAD154
:101DC000B9F1000F324643465046594602DAFFF752
:101DD000CDFB01E0FFF758FB009A0AB181F000410A
:101DE000019AC2E90001D1E72DE9FF4F1F468DB0EE
:101DF000D7E901464FF0FF382E2045464FF0000945
:101E00000B90B9696D1C0E988847396A82468847DD
:101E10000028F6D1BAF1FF3F0AD024F4D064002E96
:101E200011DDBAF12B0F08D0BAF12D0F0BD102E062
:101E3000404611B0ABE744F48064B9696D1C0E985C
:101E400088478246761E6946600501D52D2000E050
:101E50002B208DF8000001F1010B0DF1200809E0A5
:101E6000B9696D1C0E98884782460F9844F4007437
:101E7000761E0560002E02DDBAF1300FF0D00B990E
:101E80008A453ED144F0800406E00F99681CA9F110
:101E9000010944F400740860B9696D1C761E0E983F
:101EA000884782463028F0D02BE00B998A4505D12F
:101EB000200603D444F08004761E18E050460AF051
:101EC00045FD08B30DF11301761E44F400748B45F3
:101ED00008D2AAF130000BF8010B200607D5A9F1B2
:101EE000010003E0200602D409F101008146A005AB
:101EF00002D50F99681C0860B9696D1C0E98884757
:101F00008246002ED1DC53E0002E51DDBAF1650F80
:101F100002D0BAF1450F4BD1A00549D5B9696D1C66
:101F200024F44074761E0E9888478246002E0CDDFD
:101F30002B2804D0BAF12D0F07D144F48074B9696D
:101F40006D1C0E9888478246761EE00501D52D212E
:101F500000E02B2108F8011BCDF82C8021E00DF1C9
:101F60002901761E44F4007488450CD2AAF1300091
:101F700010F0FF0088F8000002D10B99884509D9BC
:101F800008F1010806E0E00501D5244801E042F22D
:101F90000F708146B9696D1C0E98884782460F986C
:101FA0000560002E04DD50460AF0D0FC0028D6D192
:101FB000F9690E988847FF208BF8000088F8000028
:101FC0000020069007904B466A4608A906A8FFF72E
:101FD0008BFEA00502D46FF001002AE714F0240F55
:101FE0000AD0E00714D1DDE906123868031D3B6012
:101FF0000068C0E900120BE0DDE90601FFF7BEFB57
:102000000146E00704D13868021D3A6000680160AB
:1020100028460EE7000024400000F03FF1D8FFFF03
:10202000426842B1016811F8013B23B1521EC0E978
:102030000012184670470121C160881E704742682F
:102040005AB1C368016843B983688B4205D0491E01
:10205000521CC0E90012002070474FF0FF3070475B
:102060000EB540F2334202920022CDE9002213461F
:10207000FFF708FD03B000BD70B58C1810F8015BC8
:1020800015F0070301D110F8013B2A1106D110F811
:10209000012B03E010F8016B01F8016B5B1EF9D115
:1020A0002B0705D40023521E0DD401F8013BFAE79B
:1020B00010F8013BCB1A921C03E013F8015B01F806
:1020C000015B521EF9D5A142D8D3002070BD00009B
:1020D000F0B599B000F0AEF801210D02284605F0E8
:1020E0001BFC0121880505F0DFFB334F384603F068
:1020F000CFF90024009431480190314802900394B4
:10210000042604960594A8000690400007908000DD
:102110000890099500010A900B9401250C950D94E7
:102120000E946946384603F049FA0121384603F017
:10213000A3F90F9428041090119412940FA800F0A2
:102140004DF813948DF850508DF851501594179404
:102150008DF86060194C13A94C3C204600F076F8CD
:102160000121204600F04EF80623012200212046DE
:1021700000F092F8072302220121204600F08CF89B
:10218000062303220221204600F086F807230422BA
:102190000321204600F080F8012000F0BDF8012165
:1021A000204600F03BF80121204600F00BF82046C5
:1021B00000F0ACF819B0F0BD106402404C200140B2
:1021C000AC0A0020002904D0816841F0010181603F
:1021D0007047816821F001018160704710B5074C9C
:1021E000226807490A40D0E900131943D0E90230B8
:1021F000034319431143216010BD00000423014033
:10220000E030FCFF002904D0816841F480718160D6
:102210007047816821F4807181607047002904D083
:10222000816841F4007181607047816821F4007118
:102230008160704710B501210C02204605F07AFB41
:102240002046BDE81040002105F074BB30B542685F
:102250000F4B1A400C790B6842EA04221343436087
:1022600083680C4A1340D1E9034222434D798C68BC
:1022700044EA450422431A438260C26A22F470028F
:10228000097D491EC9B242EA0151C16230BD000058
:10229000FFFEFFFCFDF7FFC070B5072609290AD92C
:1022A000C568A1F10A0404EB4404A640B543A34069
:1022B0001D43C56007E0056901EB4104A640B54335
:1022C000A3401D4305611F23072A09D2446B521EF8
:1022D00002EB820293409C4391400C43446370BDE7
:1022E0000D2A09D2046BD21F02EB820293409C4359
:1022F00091400C43046370BDC46A0D3A02EB820244
:1023000093409C4391400C43C46270BD816841F08E
:1023100080418160704700000849002806D0D1F84C
:10232000040340F48000C1F804037047D1F80403AB
:1023300020F48000C1F80403704700000020014031
:1023400070B504460E46154608E02046641CA4B24B
:1023500000F01CF806F8010B6D1EADB2002DF4D193
:1023600070BD2DE9F04102460E4600200024971969
:1023700008E00502381B401E80B200F007F8284430
:10238000641CE4B2B442F4D3BDE8F08110B5044655
:1023900004F042FBA02004F00FFB04F077FB200ABE
:1023A00004F00AFB04F072FBE0B204F005FB04F059
:1023B0006DFB04F031FBA12004F0FEFA04F066FB93
:1023C000002004F0C5FA044604F042FB204610BD8C
:1023D00070B506460D46144606E02978304600F0F2
:1023E0001CF8761CB6B26D1C641EA4B2F5D270BD8A
:1023F0002DE9F04106460D461746002409E0E000AD
:1024000025FA00F0C1B2301980B200F006F8641C61
:10241000E4B2BC42F3D3BDE8F08170B504460D468A
:1024200004F0FAFAA02004F0C7FA04F02FFB200A07
:1024300004F0C2FA04F02AFBE0B204F0BDFA04F0A2
:1024400025FB284604F0B8FA04F020FB04F000FB5A
:10245000BDE870400A200DF009BB000010B521A0B6
:1024600008F016F8012228A100200FF033FC274CB9
:10247000012225A160680FF02DFC0022114622A048
:102480000FF072F9012220A100200FF023FC01229D
:102490001DA160680FF01EFC01221BA160680FF0F7
:1024A00019FC0D2819D11AA007F0F2FF00221146DD
:1024B00015A00FF059F918B121A007F0E9FFFEE7C8
:1024C00024A007F0E5FF01220FA100200FF002FC7D
:1024D00001220DA160680FF0FDFBBDE8104026A0B1
:1024E00007F0D6BF53797374656D205374617274AD
:1024F00020466F726D61742053504920464C415301
:10250000482E2E2E00000000313A0000C0000020AE
:102510003E3E53504920464C415348BBB9C3BBD300
:10252000D0CEC4BCFECFB5CDB3A3ACBCB4BDABBDA7
:10253000F8D0D0B8F1CABDBBAF2E2E2E0D0A0000C8
:102540003C3CB8F1CABDBBAFCAA7B0DC2E3E3E0DC5
:102550000A0000003E3E53504920464C415348D2A9
:10256000D1B3C9B9A6B8F1CABDBBAFCEC4BCFECF0A
:10257000B5CDB3A1A30D0A0053797374656D2053D3
:10258000504920464C41534820466F726D6174207B
:10259000436F6D706C657465642E2E2E0000000014
:1025A0002DE9F04F85B01E24DFF834A40127DAF8B6
:1025B0001C00002823D116F071FBCAF81C00C0B122
:1025C00080F850701EF0A0FFDAF81C000069400887
:1025D0004042CAF82000CAF82400CAF82800CAF805
:1025E0002C000020CAF83000FE490860FE4908604F
:1025F00005E040F2CF714FF0804006F030FFDAF88E
:102600001C0000287ED0F949DFF8E49309780129FD
:102610000DD190F8511021B190F85110012904D03A
:1026200005E00021C9F8B01201E0C9F8B07290F8D5
:1026300020108AF80D10EA4AEE4BDFF8BCC3CD0734
:102640004FF0FF3B02F1160205D01B78CCF8A83200
:1026500082F800B005E01B7863B10023CCF8A83203
:102660001770E64B8D0707D51B78CCF89C3282F8A3
:1026700001B007E00123F1E71B78ABB10023CCF8F0
:102680009C325770DE4BCD0703F10C062AD09AF826
:102690000C503DB3DB4D2D68DFF86C8398F800805B
:1026A000454503D0012502E00123E8E70025BDB13F
:1026B0009AF80880B8F1000F12D0D0F80080B8F175
:1026C000000F0DDDD6F80080C3F800808AF8057091
:1026D000D0F81080CAF83080DFF8308388F80070B6
:1026E0008AF80850DFF828838D072AD59AF80C500D
:1026F0003DB3D8F82452DFF81CE39EF800E075459E
:1027000003D000E040E2012500E00025BDB19AF8C9
:1027100009E0BEF1000F12D0D0F804E0BEF1000FC6
:102720000DDDD6F804E0C3F804E08AF80670D0F8AE
:1027300010E0CAF830E0DFF8D4E28EF800708AF8D2
:102740000950B54D5FEA417E4ED52D78C8F88452C8
:10275000B24D2D6805B10125FDB1B14D2D78E5B122
:10276000DFF8C0E240F2C155CEF80050B5689D6078
:102770000569CAF83050B56800EE105AAA4DB8EE97
:10278000C00AD5ED020AA94D80EE201A85ED021A85
:10279000B568DFF89CE2CEF8085082F802B09AF8EB
:1027A0000C5005B3D9F82C92A24D2D78A94501D033
:1027B000012500E00025A5B19AF80A90B9F1000FB3
:1027C0000FD0D0F80890B9F1000F0ADDD6F80890C4
:1027D000C3F808908AF807700369CAF830308B4B49
:1027E0001F708AF80A5026E02D785DB10025C8F8E0
:1027F00084529770D9F828928E4D2D78A94503D030
:10280000012502E00125F2E7002595B19AF80B9029
:10281000B9F1000F0DD0D0F80890B9F1000F08DD24
:10282000D6F80890C3F808908AF807700369CAF8C8
:1028300030308AF80B500D077F49804B0DD590F84A
:102840002150012D05D01978C8F8B41282F803B0D0
:102850000DE00978CCF89012F8E790F82150012D9E
:102860000DD0197899B10021C8F8B412D7700021A1
:1028700000255B4BDFF8C8919B7B00931FE1097833
:1028800019B10021CCF89012F0E70121FAE70121FB
:10289000EAE7D0F800A0D3F820B0DA44C3F820A0CB
:1028A000CDF810A0BAF1000F05DD4FF4006AA9F8C9
:1028B00018A041F00101D0F804A0D3F824B0DA4404
:1028C000C3F824A0CDF80CA0BAF1000F05DD4FF439
:1028D000807AA9F818A041F00201D0F808A0D3F836
:1028E00028B0DA44C3F828A0CDF808A0BAF1000F48
:1028F00007DDDFF850B14FF0040AABF800A041F05B
:102900000401D0F80CA0D3F82CB0DA44C3F82CA002
:10291000CDF804A0BAF1000F0EDD90F821A0BAF1B5
:10292000010F04D0C8F8B87241F0080104E0CCF8F7
:102930009472F9E700BF00BF641EE4B2FAD25FEA06
:10294000C17A16D04FF4006AA9F818A0D0F810E0A8
:10295000DDF810B0ABEB0E0BC3F820B0D6F800B02A
:1029600092F900E0F344C6F800B0A9F81AA0A9F85B
:102970001AA05FEA817A16D54FF4807AA9F818A0D8
:10298000D0F810E0DDF80CB0ABEB0E0BC3F824B0C0
:10299000D6F804B092F901E0F344C6F804B0A9F8FF
:1029A0001AA0A9F81AA05FEA417A18D5D0F810B099
:1029B000DDF808A0AAEB0B0AC3F828A0D6F808A0F7
:1029C00092F902B0DA44C6F808A0DFF878B04FF008
:1029D000040A0BF1020BABF800A0ABF800A033E047
:1029E00048020020B8050020BC0500205E0700203A
:1029F00000804142FD02002000004242FE02002011
:102A00004493012020024042030300209D0A00203D
:102A10000000414204030020FF02002000824042E7
:102A2000340600203C04014008060020449F012099
:102A3000A4940120050300200103002000030020CE
:102A40000010024018080240090711D5D0F810A064
:102A50000199A1EB0A01D962F16892F903A05144EE
:102A6000F16090F82110012923D00021C8F8B81294
:102A70000021D3F830A00AF1010AC3F830A0DFF832
:102A800010A1DAF800B00BF1010BCAF800B0DFF8C2
:102A900004A1DAF800B00BF1010BCAF800B0D0F8CD
:102AA00010A01B6B9A4508D83B48C16116F0E8F8A6
:102AB0000BE00021CCF89412DAE76D1CEDB2DDF8E2
:102AC00000A0354B5545FFF4E4AE334EF069326B50
:102AD000416991421FD3716B3446C26981FB021276
:102AE000090E41EA0221B0F84020114489B2618206
:102AF000C06B884200D26082608A0BF015FB208296
:102B0000218A4FF08040491E06F0A9FC606B218AA3
:102B1000084460632CE08169326B3546914221D2D2
:102B2000A96BC26981FB02210B0243EA126189B2DF
:102B30006A8A914206D2406C511A814200D80146FD
:102B400088B202E0B0F8440080B20BF0EDFA2882BF
:102B5000298A4FF0804006F082FCA86B298A08443D
:102B6000A86305E0A98A4FF08040491E06F077FC73
:102B7000F069316B0069884206D80020F06105B029
:102B8000BDE8F04F16F07CB805B0BDE8F08F00004E
:102B9000B8050020BC050020480200202DE9F04FB8
:102BA00089B0002500278B48407800284FD08948FD
:102BB000DFF824B25430DFF82492A846DFF820A2D0
:102BC0000890FBE042F21070874240D87F1CBFB2F1
:102BD000D9F80000C0F800804FF44D71089A0EF04B
:102BE00032FC002871D00024D9F8000001783B297C
:102BF00017D04D2903D0472901D0542910D1015DA8
:102C0000202905D102195278202A09D03B2AFCD06C
:102C10000D29FAD00A29F8D0641CE4B2482CEED36E
:102C200081E009226FA1FEF741FB00287BD10A2237
:102C30006FA1DBF800000FF073F858B16FA007F038
:102C400027FC70A007F024FC74A007F021FC09B059
:102C5000BDE8F08FD9F80000FEF70AFB81B2A1F1C0
:102C60000A06B0B28008AAF812006DA007F010FCA6
:102C7000D9F80010714B32460931DBF800000FF033
:102C800090FB6D1CEDB241E0D9F80000C0F8008067
:102C90004FF44D71089A0EF0D6FBB8B1D9F8000088
:102CA000FEF7E6FA86B2082265A1D9F80000FEF721
:102CB000FDFAC0B151A007F0EBFB294663A007F075
:102CC000E7FB56A007F0E4FB22E055E04BA007F03D
:102CD000DFFB294664A0D9F8002007F0D9FB4FA0FC
:102CE00007F0D6FB14E0142E04D2294665A007F0A5
:102CF000CFFB0DE0D9F80010504BA6F109020831C6
:102D0000DBF800000FF04DFB6D1CEDB2FF2DBBD3C7
:102D1000C82D04D101208AF800008AF80100DBF8F0
:102D200000000EF009FB3CB3604EDAF834003118B5
:102D300081F8008900EBC00006EBC0004821FEF7D7
:102D400058FADAF83400224600EBC00006EBC00067
:102D5000D9F80010FEF734FADAF83800401CCAF847
:102D60003800DAF83400401CC11700EBD16121F0C3
:102D70001F01401ACAF834000BF0A4FAF0B14C4815
:102D800080F800804BA007F083FB24A007F080FBB5
:102D90004D484EA1C3780279684607F089FB50A0E0
:102DA00007F076FB694650A007F072FB1BA007F006
:102DB0006FFB0BF003FC08980EF0BEFA0BF082FAE2
:102DC00000287FF444AFDAF838001A28FFF6FAAE8C
:102DD0003DE70000F4A80120B8000020BC0000205E
:102DE000280600203B3B67696D6167653A0000007B
:102DF000303A70696374722E626D70004552524FA2
:102E0000523A2000437265617420303A70696374ED
:102E1000722E626D70206572726F72000D0A000072
:102E200073617665206669727374206C696E6520C3
:102E3000636F756E743D25640D0A00003802002032
:102E40004D3130303836203B00000000726561643F
:102E50002067636F646520706963206572726F72AA
:102E6000206C696E65256400726561642070696319
:102E7000206C696E652564206572726F72202573FF
:102E800000000000726561642067636F6465206DF7
:102E90006F646520706963206F766572206C696E5F
:102EA000653D256421210D0A000000006C9F012072
:102EB00024940120446F6E65207072696E74696E8F
:102EC000672066696C650000D40A002025692068C7
:102ED0006F757273202569206D696E757465730056
:102EE0006563686F3A000000257300001FB56846EF
:102EF00004F02EFD45A007F0CBFA4FA007F0C8FA6A
:102F000042A007F0C5FA4CA007F0C2FA3FA007F0B4
:102F1000BFFA49A007F0BCFA3CA007F0B9FA46A0F6
:102F200007F0B6FA39A007F0B3FA43A007F0B0FAF9
:102F300036A007F0ADFA40A007F0AAFA33A007F0D8
:102F4000A7FA3DA007F0A4FA30A007F0A1FA3AA032
:102F500007F09EFA39A23CA13EA007F099FA36A0EC
:102F600007F096FA41A0009907F092FA32A007F014
:102F70008FFA43A0019907F08BFA2FA007F088FA87
:102F800044A0029907F084FA2BA007F081FA46A02A
:102F9000039907F07DFA28A007F07AFA1BA007F042
:102FA00077FA25A007F074FA18A007F071FA22A0AA
:102FB00007F06EFA15A007F06BFA1FA007F068FA89
:102FC00012A007F065FA1CA007F062FA0FA007F044
:102FD0005FFA19A007F05CFA0CA007F059FA16A0E6
:102FE00007F056FA09A007F053FA13A007F050FAB9
:102FF00006A007F04DFA10A007F04AFA03A007F068
:1030000047FA0DA007F044FA1FBD00002A2A2A2A19
:103010002A2A2A2A2A2A2A2A2A2A2A2A2A2A2A2A10
:103020002A2A2A2A2A2A2A2A2A2A2A2A2A2A2A2A00
:103030002A2A2A2A000000000D0A00004A756E2084
:10304000323820323032310031363A33343A343586
:1030500000000000202020202020202020202020F0
:103060002025732D2D257320202000005359534314
:103070004C4B5F4672657175656E63793D256400E2
:1030800048434C4B5F4672657175656E63793D25AB
:103090006400000050434C4B315F467265717565AA
:1030A0006E63793D2564000050434C4B325F46729D
:1030B000657175656E63793D256400002DE9FC5FDF
:1030C0000121084604F0F0FB0121022004F0ECFB92
:1030D0000121042004F0E8FB0121082004F0E4FBB6
:1030E0000121102004F0E0FB0F20009003268DF852
:1030F000046000248DF807406946B54802F068FC7A
:10310000DFF8D0924FF48050A9F81800C010A9F849
:103110001800B149082008800003088004200090AE
:1031200001258DF804508DF806408DF805608DF866
:1031300007506946A94802F04BFC4EF20E20009061
:103140008DF804508DF806408DF805608DF8075015
:10315000A1486946183802F03BFC41F67E300090E9
:103160008DF804508DF806408DF805608DF80750F5
:103170006946484602F02CFC4FF4906000908DF8B0
:1031800004508DF806408DF805608DF807406946BB
:10319000484602F01DFCA902484602F06EFC802160
:1031A000484602F06AFC2903484602F068FCE8023F
:1031B00000908DF804508DF806408DF805608DF86C
:1031C00007506946484602F003FC684602F059FC85
:1031D00040F6017000908DF804408DF806408DF89F
:1031E0000750DFF8FCB16946584602F0F1FB4FF496
:1031F0008078CDF800808DF804408DF806408DF879
:1032000007506946724802F0E3FB680200908DF8AF
:1032100004408DF806408DF807506F48694618380D
:1032200002F0D6FB4FF40C7000908DF804508DF82E
:10323000064002278DF805708DF8075069466748EB
:1032400002F0C6FB3021654802F017FC69026348B2
:1032500002F015FC4FF4086ACDF800A06946584604
:1032600002F0B6FB5146584602F009FCCDF800804A
:1032700069465A4802F0ACFB4146584802F0FFFB51
:10328000102000908DF804408DF806408DF8056000
:103290008DF807506946584602F09AFB04200090CA
:1032A0008DF804508DF806408DF805708DF8077084
:1032B0006946584602F08CFB0421584602F0DDFBBB
:1032C00000958DF804408DF805708DF807706946FB
:1032D000484602F07DFBC02000908DF804508DF828
:1032E00006408DF805608DF8075069463B4802F0AE
:1032F0006FFB02220E21584602F0A8FB02220F218A
:10330000584602F0A3FB344802220821183802F084
:103310009DFB02220D21584602F098FB31480078AF
:10332000F0B300958DF804708DF806408DF80560B7
:1033300069462A4802F04CFB4FF4C07000908DF8AB
:1033400004708DF806408DF80560234F6946183FDC
:10335000384602F03DFB4FF46049CDF800906946D5
:10336000584602F035FB4946584602F086FB414676
:10337000384602F082FB322000908DF804508DF820
:1033800006408DF805608DF807506946384602F012
:103390001FFB3221384602F072FB43F2080000E0C6
:1033A0000AE000906946584602F012FBB9145846EC
:1033B00002F063FBBDE8FC9F00958DF804408DF89A
:1033C00006408DF805606946044802F001FBB3E74A
:1033D00000000240001002401808024000040240B1
:1033E000000C02405E07002070B50121084604F081
:1033F00077FA4FF08045284605F070FE144941F2F7
:10340000883048602620088000240C814C802846A3
:1034100006F028F801222621284606F01DF80D495D
:103420001C2008704C708C700120C870084603F096
:1034300009FF0121284605F027FE012211462846F2
:1034400005F02EFF2846BDE87040012105F02BBE97
:1034500050BD0120D00A002070B50121082004F0E1
:103460003FFA11480921416042F2CF010180002456
:10347000048144800D4D0146284605F0F3FF0122EA
:103480001146284605F00CFF094932200870012238
:103490004A708C70CA70084603F0D4FE2846BDE816
:1034A0007040012105F0FFBD50BD0120000C00401F
:1034B000D00A00207FB50121202004F011FA4FF43A
:1034C000FA6002902920ADF804000024ADF80C4009
:1034D000ADF806400D4D01A9284605F0C3FF0122B5
:1034E0001146284605F0DCFE37218DF800108DF8D6
:1034F00001408DF8024001218DF80310684603F069
:10350000A1FE0121284605F0CEFD7FBD001400403C
:103510002DE9F04F2DED028B85B00525F84F41F2D6
:103520001020A7F80100F74C002643F61639217841
:10353000002971D0267003F0DDFA142010F05EFD32
:1035400004F5007ACAF8740000287BD04FF0010817
:10355000CDE900687A238222B12118200AF072F89E
:10356000DAF874100860CDF800807A238222B12145
:10357000A720CDF804800AF065F8DAF874104860E6
:103580000220CDE9000840F23B1B7A2382225946F3
:10359000A7200AF057F8DAF8741088600320CDE904
:1035A00000087A238222594618200AF04BF8DAF8EC
:1035B0007410C8600420CDE9000800213623AA0158
:1035C00008460AF03FF8DAF87410086104F5C07292
:1035D0000B689068C3F825000B68C3F829004B6896
:1035E0001068C3F825004B68C3F829008B68506841
:1035F000C3F825008B68C3F82900207B0A280CD06B
:103600001069CA68C2F82500C968C1F829004FF0DE
:103610000008A5F1010B13E06DE0D068CA68C2F89C
:103620002500C968C1F82900F1E70BE0DAF8740059
:1036300050F828000AF0C3F808F1010808F0FF0864
:10364000D845F3DB41F21020A7F801004FF6FF78D0
:103650004FF4A07A434652463621002010F09CFBDE
:10366000DFF8A4B210200346DBF84C10CDE900804F
:10367000CDE9021640221121052010F07DFFDBF874
:1036800090001021CDE90081CDE902060B4652469B
:103690001121002010F070FF4A20CDE900069B4860
:1036A00002964FF4897358221821C06F13F0CCFC96
:1036B000A7F80190DFF858A26421DAF80000FDF7BE
:1036C00098FD94480068FEF716F8CDE9000192A134
:1036D000DBF89420DAF8000006F0EAFEDAF80010D1
:1036E0001020CDE90080CDE902160346A022742106
:1036F000502010F041FFDFF830822A468949D8F87F
:1037000074001AF0B1FE410612D520F0C0009FED02
:10371000878ADFF81CB205280AD2DFE800F0030A26
:103720006BCCF00083A00CF077FD84A00CF074FD4E
:103730002AE109F07BFF0028FAD1DFF8D8A1864AF8
:103740009AED000A10EE101A91420ADA217B00EE7F
:10375000901AB8EE601AC1EE080A30EE800A8AEDBF
:10376000000A94F80CC0002100EB40020BEB82032E
:1037700000EE10CA03EB8102F8EE400A80EE880AE0
:10378000D2ED000A30EEC00A82ED000A491CC9B22F
:103790000329EDD3401CC0B20328E4D36FA00CF082
:1037A0003BFDA7F801901023A02274215020CDF8F2
:1037B000009010F009FB564F64213868FDF719FDA1
:1037C000DAF80000FDF797FFCDE900014E4852A15D
:1037D000426F386806F06CFE3A68102001AF4FF671
:1037E000FF7145C703460091A0227421502010F0BC
:1037F000C3FEC9E009F01AFF00285BD1DFF814A16D
:103800009AED000A10EE101AB1F1404F0AD2217B56
:1038100000EE901AB8EE601AC1EE080A30EE600AA7
:103820008AED000A94F80CC0002100EB40020BEB7B
:10383000820300EE10CA03EB8102F8EE400A80EE2C
:10384000880AD2ED000A30EE200A82ED000A491CF7
:10385000C9B20329EDD3401CC0B20328E4D33FA072
:103860000CF0DAFCA7F801901023A022742150205C
:10387000CDF8009010F0A8FA254F64213868FDF7C4
:10388000B8FCDAF80000FDF736FFCDE900011E486C
:1038900021A1426F386806F00BFE3A68102001AF94
:1038A0004FF6FF7145C703460091A02274215020B6
:1038B00010F062FE68E0207B0A2812D00A202073F4
:1038C000D8F8741011488030CA68C068C2F8250062
:1038D000C968C1F82900D8F87400C06809F06FFF02
:1038E00052E005202073094880300169D8F874003F
:1038F000C268C2F82510C068C0F82910EBE733E0B1
:10390000D0B90120380700206CBC01203808002005
:10391000BC0000209406002025733A25312E326623
:103920002020000019070020380900200000C842AC
:10393000D0A801204732384C000000004730205802
:1039400038372E323520593132302E3735205A3023
:103950002046363030000000000040404730205AFA
:103960003020463330300000012020701348E063DF
:10397000042213494FF49660FEF72AFD24221149D0
:1039800040F2B440FEF724FD2078002810D0002734
:1039900007E0D8F8740050F8270009F0FAFE7F1C01
:1039A000FFB2AF42F5D3D8F8740010F023FBA66441
:1039B00005B0BDEC028BBDE8F08F000095EC01086E
:1039C00094060020D0A801200549012804D0002039
:1039D00008700449086070470120087070470000B3
:1039E000FC0200208C824142F0B507460C46154689
:1039F0001E462A2006F028FDC7F3072006F036FDF4
:103A0000F8B206F033FDC4F3072006F02FFDE0B254
:103A100006F02CFD2B2006F017FDC5F3072006F05D
:103A200025FDE8B206F022FDC6F3072006F01EFDD4
:103A3000F0B206F01BFDBDE8F0402C2006F004BDFE
:103A4000FEE700002DE9F04F87B00546002400276F
:103A5000A346F9A006F01CFDFEA006F019FDFE4EDF
:103A600040F2FF11F161002014F088FA0246B061C3
:103A70001046F169FDF7BDFBA6F54D7606F5FA7126
:103A800028004FF0010A06F23D3906F51678069136
:103A900006D001287DD002287CD003281BD1E6E384
:103AA000EEA006F0F5FCEBA006F0F2FCEF490020DA
:103AB0004876E94801F2922124380EF0E1F9002815
:103AC00066D0EBA006F0E4FCEB49ECA006F0E0FCCD
:103AD000E0A006F0DDFCFFE27F1CBFB2DE49A1F1F1
:103AE00024000EF0C5FA00287ED1DB48407A002879
:103AF0007AD0D9482438B0F806B0E5A0594606F087
:103B0000C7FCD4A006F0C4FCD3488569287800B966
:103B10004D462946E3A006F0BBFCCEA006F0B8FC5B
:103B2000CD48007AC00636D55946E0A006F0B0FC74
:103B3000C8A006F0ADFCDFA006F0AAFCC5A006F008
:103B4000A7FC08EB8400A0F802B008F824A0C24843
:103B50008569287800B94D4604EBC40000EB0410D9
:103B600006EB80002946FDF798FB641CE0B20628AE
:103B700002D3BE4981F819A00621B0FBF1F201FB86
:103B800012042946C7A006F083FCB2A006F080FC10
:103B900040E0EEE0DFE228460EF064FB00110AFA96
:103BA00000F0400636D55946C0A006F071FCA9A029
:103BB00006F06EFCC1A006F06BFCA6A006F068FC47
:103BC00008EB8400A0F802B0002008F82400A24806
:103BD0008569287800B94D4604EBC40000EB041059
:103BE00006EB8000294600E019E0FDF756FB641C57
:103BF000E0B2062802D39D4981F819A00621B0FB46
:103C0000F1F201FB12042946A6A006F041FC91A0A6
:103C100006F03EFC4EF660208742FFF45DAF93480D
:103C2000407EC0076AD0C4F1060000F0FF090027FB
:103C30002DE08948C838D0F800A0CDF800A028466B
:103C40000699FDF72AFB0424601C08EB840208EBAC
:103C5000800112680A6004EBC40100EBC00201EBB2
:103C6000041102EB001006EB810106EB8000FDF76A
:103C700014FB641E64B2002CE6DA9248C0F86CA013
:103C80002946A0F5F670FDF708FB7F1CFFB24F45F3
:103C9000CFD30024C4F10500C7B2DFF828B20BF17E
:103CA0006C0B0BEB8409D9F800A0CDF800A004EB55
:103CB000C40000EB041006EB800841462846FDF7DF
:103CC000ECFA0BEB870BDBF80000C9F8000007EB00
:103CD000C70000EB071006EB800007460146404690
:103CE000FDF7DBFACBF800A038462946FDF7D5FAF8
:103CF000641CE4B2032CCDD30624EDE1002CFCD0EF
:103D0000601E00EBD070C0F34700019000272CE04C
:103D1000E01B401E00F0FF0908EB87018B46096895
:103D20000091059107EBC70000EB071006EB800A36
:103D300051462846FDF7B1FA594608EB89008346FB
:103D40000068086009EBC90000EB091006EB800968
:103D500050464946FDF7A1FA0599CBF800104846B0
:103D60002946FDF79AFA7F1CFFB201988742CFD30C
:103D7000B2E155A006F08CFB36A006F089FB3B486B
:103D8000417EC907B9D0022141764E496C31C98ABA
:103D90008186314824380DF0DEFA48B134A006F0AF
:103DA00077FB4CA006F074FB2AA006F071FB93E1B0
:103DB0002948314924380EF063F800283AD02CA065
:103DC00006F066FB2C492DA006F062FB21A006F050
:103DD0005FFB81E17F1CBFB21F49A1F124000EF0FF
:103DE00047F9002811D1DFF8708098F80900002801
:103DF0000BD0A8F12400C1881C48808E814205D3D5
:103E00005946A8F124000CF09CF8F8E08B4620A05D
:103E100006F03EFB0FA006F03BFBD8F818502878C0
:103E200000B94D4629461FA006F032FB09A006F056
:103E30002FFB57E0DEE000006D616C6C6F63206665
:103E40006C626F7866696E666F2E6C666E616D650A
:103E5000000000000D0A000030BD0120656E747284
:103E6000795F747970653D300000000038070020EC
:103E70004552524F523A2000CA0900206F70656EB9
:103E800020646972202573206572726F72000000D1
:103E9000466C426F784469722E696E6465783D2580
:103EA000640000002573200A0000000025643A2009
:103EB00020000000C4BFC2BC3A00000047636F642A
:103EC000653A0000E8BB0120504147455F444F5729
:103ED0004E000000636C6F73652064697220657228
:103EE000726F720098F80800C0063DD55946AFF2CF
:103EF000440006F0CDFAAFF2A40006F0C9FAAFF222
:103F00004C0006F0C5FAAFF2B40006F0C1FAFE4864
:103F100000EB8401A1F802B000F824A0D8F81850F2
:103F2000287800B94D4604EBC40000EB041006EB02
:103F300080002946FDF7B1F9641CE0B2062804D3DD
:103F4000F2494A7E42F001024A760621B0FBF1F2C4
:103F500001FB12042946AFF2B40006F099FAAFF261
:103F60000C1006F095FA45E028460EF07BF900119A
:103F70000AFA00F040063DD55946AFF2D00006F0EF
:103F800087FAAFF2301006F083FAAFF2D00006F0F5
:103F90007FFAAFF2401006F07BFADB4800EB8401B9
:103FA000A1F802B0002100F82410D8F818502878A1
:103FB00000B94D4604EBC40000EB041006EB800092
:103FC0002946FDF76AF9641CE0B2062804D3CF49FC
:103FD0004A7E42F001024A760621B0FBF1F201FB73
:103FE00012042946AFF2441006F052FAAFF29C10C8
:103FF00006F04EFA4EF660208742FFF4EBAEC3485F
:10400000407EC00769D0C4F1060000F0FF09002718
:10401000DFF8F4B22EE0BC481430D0F80080CDF8C0
:10402000008028460699FDF738F90424601C0BEB44
:1040300084020BEB800112680A6004EBC40100EB00
:10404000C00201EB041102EB001006EB810106EB4C
:104050008000FDF722F9641E64B2002CE6DAAA485B
:104060006C38C0F86C802946A0F5F670FDF715F99C
:104070007F1CFFB24F45CED30024C4F10500C7B268
:104080000BEB84018946D1F800A0CDF800A004EB29
:10409000C40000EB041006EB800841462846FDF7FB
:1040A000FCF849460BEB870081460068086007EB87
:1040B000C70000EB071006EB800740463946FDF7C6
:1040C000ECF8C9F800A038462946FDF7E6F8641C6C
:1040D000E4B2032CD1D30624B7E2002CFCD0601E3E
:1040E00000EBD070C0F34700019000272FE0E01BE9
:1040F000401E00F0FF08DFF810B20BEB870ADAF879
:1041000000000090049007EBC70000EB071006EBDF
:10411000800949462846FDF7C0F80BEB880BDBF811
:104120000000CAF8000008EBC80000EB081006EB1E
:104130008000804601464846FDF7AFF80498CBF86A
:10414000000040462946FDF7A8F87F1CFFB2019801
:104150008742CCD379E26EA006F09AF9AFF20C3028
:1041600006F096F9A0E07F1CBFB2062C7ED266490D
:10417000DC31A1F124000DF07BFF002876D16248EC
:10418000DC30407A002871D05F48B830B0F806B013
:104190005946AFF2043006F07BF9AFF2483006F032
:1041A00077F95948DC308569287800B94D462946A9
:1041B000AFF2103006F06CF9AFF2683006F068F933
:1041C0005148DC30007AC00631D55946AFF2243070
:1041D00006F05EF9AFF2843006F05AF9AFF22C30F7
:1041E00006F056F9AFF2943006F052F908EB84006D
:1041F000A0F802B008F824A04348DC30856928788C
:1042000000B94D4604EBC40000EB041006EB80003F
:104210002946FDF742F8641CE4B22946AFF27C302F
:1042200006F036F9AFF2D43006F032F93CE0284619
:104230000EF018F800110AFA00F0400634D559467D
:10424000AFF2983006F024F9AFF2F83006F020F91A
:10425000AFF2983006F01CF9AFF2084006F018F9FA
:1042600008EB8400A0F802B0002001E021E0A9E002
:1042700008F824002448DC308569287800B94D46C8
:1042800004EBC40000EB041006EB80002946FDF7A8
:1042900004F8641CE4B22946AFF2F83006F0F8F8EE
:1042A000AFF2504006F0F4F84CF250308742FFF481
:1042B0005AAF062C03D2154880F819A002E0134922
:1042C000032048761149487E82073CD50024C4F17A
:1042D0000500C7B2DFF830B00BEB8409D9F800A0B5
:1042E000CDF800A004EBC40000EB041006EB80083E
:1042F00041462846FCF7D1FF0BEB870BDBF80000AB
:10430000C9F8000008E0000054BC01203807002074
:10431000504147455F55500007EBC70000EB0710C1
:1043200006EB8000074601464046FCF7B6FFCBF897
:1043300000A038462946FCF7B0FF641CE4B2032C09
:10434000C5D3062481E13CB1601E00EBD070C0F300
:1043500047000190002731E000F0010048760C7919
:1043600073E1E01B401E00F0FF0908EB8700834665
:1043700000680090039007EBC70000EB071006EB06
:10438000800A51462846FCF788FF584608EB890109
:104390008B460968016009EBC90000EB091006EBC8
:1043A000800950464946FCF778FF0398CBF8000097
:1043B00048462946FCF771FF7F1CFFB201988742EF
:1043C000CFD342E1ADA006F063F8AFF2785006F02B
:1043D0005FF8AD49AD480DF053FD002878D0AFF23D
:1043E000705006F055F8A849AFF2705006F050F83A
:1043F000AFF2A05006F04CF827E17F1CBFB2A448F2
:10440000007E84427DD2A149A04824310DF030FEC7
:10441000002876D19D482430407A002871D09B48EE
:10442000B0F806B0A0F549719948C07D31F8100088
:1044300058454DD85946AFF2A85006F029F8AFF2CA
:10444000EC5006F025F8914824308569287800B9A9
:104450004D462946AFF2B45006F01AF8AFF20C60A0
:1044600006F016F889482430007AC00631D559463E
:10447000AFF2C85006F00CF8AFF2286006F008F86A
:10448000AFF2D05006F004F8AFF2386006F000F852
:1044900008EB8400A0F802B008F824A07B48243080
:1044A0008569287800B94D4604EBC40000EB041080
:1044B00006EB80002946FCF7F0FE641CE4B22946B6
:1044C000AFF2206005F0E4FFAFF2786005F0E0FFA6
:1044D0003BE028460DF0C6FE00110AFA00F0400647
:1044E00033D55946AFF23C6005F0D2FFAFF29C6085
:1044F00005F0CEFFAFF23C6005F0CAFFAFF2AC6052
:1045000000E027E005F0C4FF08EB8400A0F802B04B
:10451000002008F824005D4824308569287800B917
:104520004D4604EBC40000EB041006EB8000294666
:10453000FCF7B3FE641CE4B22946AFF2986005F0C4
:10454000A7FFAFF2F06005F0A3FF4CF250308742B6
:10455000FFF453AF062C03D24D4880F819A002E0B7
:104560004B49032048764A48407E800734D50024D2
:10457000C4F10500C7B2DFF814B1ABF1B80B0BEB17
:104580008409D9F800A0CDF800A004EBC40000EB2A
:10459000041006EB800841462846FCF77EFE0BEB34
:1045A000870BDBF80000C9F8000007EBC70000EB41
:1045B000071006EB8000074601464046FCF76DFEFB
:1045C000CBF800A038462946FCF767FE641CE4B22D
:1045D000032CCDD3062438E0BCB3601E00EBD070B2
:1045E000C0F34700019000272CE0E01B401E00F0C4
:1045F000FF0908EB8700834600680090029007EBF4
:10460000C70000EB071006EB800A51462846FCF76E
:1046100044FE584608EB89018B460968016009EBA6
:10462000C90000EB091006EB800950464946FCF72B
:1046300034FE0298CBF8000048462946FCF72DFED0
:104640007F1CFFB201988742CFD312A005F020FF54
:10465000AFF6000005F01CFF0C48243081690020F3
:1046600013F080FC214611A005F012FFAFF61C00EC
:1046700005F00EFF07B02046BDE8F08F4C415354C3
:104680005F464C4F44455200CA0900200CBD012032
:10469000380700206672656520666C626F7866690F
:1046A0006E666F2E6C666E616D65000066696C6586
:1046B00077745F696478203D2025640006480168AE
:1046C000064841640649006B085C002802D105A039
:1046D00005F0DEBE704700003000002028060020F4
:1046E0006CB901206F6B0D0A0000000010B5C0A06E
:1046F00005F0CEFEC0A005F0CBFEBDA005F0C8FEC3
:10470000C14C94ED000A10EE100AFCF7F4FF41ECE6
:10471000100BBEA053EC102B05F0BAFE94ED010A6D
:1047200010EE100AFCF7E7FF41EC100BBAA053ECB7
:10473000102B05F0ADFE94ED020A10EE100AFCF706
:10474000DAFF41EC100BB6A053EC102B05F0A0FEE5
:1047500094ED030A10EE100AFCF7CDFF41EC100BAC
:10476000B1A053EC102B05F093FEB1480178B1A035
:1047700005F08EFEB4480178B4A005F089FEB84873
:104780000178B8A005F084FEBB480178BBA005F015
:104790007FFE97A005F07CFEBDA005F079FE94A0F9
:1047A00005F076FEC14C94ED000A10EE100AFCF7FD
:1047B000A2FF41EC100BBEA053EC102B05F068FEDD
:1047C00094ED010A10EE100AFCF795FF41EC100B76
:1047D00091A053EC102B05F05BFE94ED020A10EE55
:1047E000100AFCF788FF41EC100B8DA053EC102B46
:1047F00005F04EFE94ED030A10EE100AFCF77BFF65
:1048000041EC100B88A053EC102B05F041FE78A072
:1048100005F03EFEA9A005F03BFE75A005F038FEB0
:10482000AE4C2168AEA005F033FE6168AFA005F084
:104830002FFEA168AFA005F02BFEE168AFA005F048
:1048400027FE6BA005F024FEAEA005F021FE68A0B7
:1048500005F01EFEB94890ED000A10EE100AFCF7B4
:104860004AFF41EC100BB6A053EC102B05F010FEE4
:10487000B64890ED000A10EE100AFCF73CFF41EC40
:10488000100BB3A053EC102B05F002FE58A005F05E
:10489000FFFDB14805F0FCFD55A005F0F9FDAF485E
:1048A00090ED000A10EE100AFCF725FF41EC100B0A
:1048B000ABA053EC102B05F0EBFDAC4890ED000ADB
:1048C00010EE100AFCF717FF41EC100BA8A053ECF8
:1048D000102B05F0DDFDA8480168A8A005F0D8FD63
:1048E000A84890ED000A10EE100AFCF704FF41EC16
:1048F000100BA5A053EC102B05F0CAFDA44890EDB9
:10490000000A10EE100AFCF7F6FE41EC100B44A072
:1049100053EC102B05F0BCFD9E4890ED000A10EE04
:10492000100AFCF7E8FE41EC100B3FA053EC102BF3
:1049300005F0AEFD2EA005F0ABFD97A005F0A8FD9B
:104940002BA005F0A5FD994C2068FCF7D4FE41ECA6
:10495000100B97A053EC102B05F09AFD6068FCF744
:10496000CAFE41EC100B2CA053EC102B05F090FD6F
:10497000A068FCF7C0FE41EC100B29A053EC102BF3
:1049800005F086FD1AA005F083FD8CA005F080FDE2
:1049900017A005F07DFD8D480068FCF7ACFE41ECEA
:1049A000100B8BA053EC102B05F072FD8B4890ED93
:1049B000000A1CF037FE10EE100AFCF79CFE41ECDA
:1049C000100B87A053EC102B05F062FD864890ED8C
:1049D000000A1CF013FE10EE100AFCF78CFE41ECEE
:1049E000100BBDE8104053EC102B80A005F050BD1B
:1049F0006563686F3A0000005374657073207065DA
:104A00007220756E69743A000806002020204D3926
:104A1000322058256600000020592566000000005D
:104A2000205A256600000000204525660D0A00007A
:104A3000FD020020494E564552545F585F4449528A
:104A40003A25640D0A000000FE020020494E56453A
:104A500052545F595F4449523A25640D0A000000E0
:104A6000FF020020494E564552545F5A5F44495256
:104A70003A25640D0A00000000030020494E564507
:104A800052545F45305F4449523A25640D0A000094
:104A90004D6178696D756D206665656472617465D8
:104AA0007320286D6D2F73293A0D0A00F805002038
:104AB00020204D3230332058256600004D61786942
:104AC0006D756D20416363656C65726174696F6EAD
:104AD00020286D6D2F7332293A0D0A001806002028
:104AE00020204D3230312058256C64002059256C2F
:104AF00064000000205A256C640000002045256CED
:104B0000640D0A00416363656C65726174696F6E60
:104B10003A20533D616363656C65726174696F6EC1
:104B20002C20543D72657472616374206163636507
:104B30006C65726174696F6E0D0A0000CC0500200F
:104B400020204D323034205325660000D00500204F
:104B5000205425660D0A000098D90508C8050020D4
:104B600020204D323035205325660000E00500201E
:104B70002054256600000000C40500202042256C5A
:104B800064000000D40500202058256600000000C5
:104B9000D8050020DC050020486F6D65206F666633
:104BA00073657420286D6D293A0D0A00549F012009
:104BB00020204D32303620582566000050494420D0
:104BC00073657474696E67733A0D0A00A002002061
:104BD0002020204D3330312050256600A4020020D3
:104BE0002049256600000000A80200202044256618
:104BF0000D0A0000F0B589B06424CE4904AE91E8F6
:104C00002D002DC6D1E905230869C9698DE80D007D
:104C10000391C9A005F03CFCD1A005F039FC0122AC
:104C200008A92046FDF78CFB65209DF82010CC29B3
:104C300009D0CCA005F02CFCC9A005F029FC00F09F
:104C400019FA09B0F0BD10242246D249FDF778FBCD
:104C500075202246D049FDF773FB85202246CF49B7
:104C6000FDF76EFB952004242246CD49FDF768FB35
:104C700099202246CB49FDF763FB9D202246CA4975
:104C8000FDF75EFBA1202246C849FDF759FBA52090
:104C90002246C749FDF754FBA9202246C549FDF726
:104CA0004FFBAD202246C449FDF74AFBB126002147
:104CB000B94CBA4B04AA684602EB810595ED000A8F
:104CC00004EB810585ED000A00EB810595ED000AF6
:104CD000BCEEC00A10EE105A43F82150491CC9B26C
:104CE000B64D0429E8D39FEDB60AAD4880ED000A21
:104CF000AC4880ED000A9FEDB30AAB4880ED000A96
:104D0000AA4944F620600860AF4880ED000AA84830
:104D1000B2EE040A80ED000A9FEDAC0AA54880EDD2
:104D2000000AA548B1EE040A80ED000A04273A46BD
:104D3000A7493046FDF704FB361DB4B23A46A549F3
:104D40002046FDF7FDFA241DA4B23A46A2492046AA
:104D5000FDF7F6FA241DA4B2012632469F492046EB
:104D6000FDF7EEFA641CA4B232469D492046FDF7D9
:104D7000E7FA641CA4B232469A492046FDF7E0FAED
:104D8000641CA4B2324698492046FDF7D9FA641C47
:104D9000A4B2324695492046FDF7D2FA641CA4B26B
:104DA000324693492046FDF7CBFA641CA4B2324642
:104DB00090492046FDF7C4FA641CA4B232468E49DD
:104DC0002046FDF7BDFA641CA4B232468B4920464A
:104DD000FDF7B6FA641CA4B2324689492046FDF7B5
:104DE000AFFA641CA4B2324686492046FDF7A8FA01
:104DF000641CA4B2324684492046FDF7A1FA641C23
:104E0000A4B20426324681492046FDF799FA241DB2
:104E1000A4B232467E492046FDF792FA241DA4B280
:104E200032467C492046FDF78BFA241DA4B2324657
:104E300079492046FDF784FA241DA4B201263246A2
:104E400076492046FDF77CFA641CA4B232467449C8
:104E50002046FDF775FA641CA6B2042422462946B2
:104E60004FF49660FDF76CFA2868FCF744FC41ECBF
:104E7000100B05F0A1FE9FED6B1B51EC100B53ECDA
:104E8000112BFCF763FC08D29FED680A85ED000A40
:104E9000224629463046FDF79BFA2422644940F217
:104EA000B440FDF74DFA0020624C614B624D032186
:104EB000B0FBF1F2B0FBF1F602EB420201FB160689
:104EC00003EB820252F82620A2420DDCB0FBF1F285
:104ED000B0FBF1F602EB420201FB160603EB820285
:104EE00052F82620AA4203D954490020087003E052
:104EF000401C80B20928DBD3012251494FF4617074
:104F0000FDF71EFA40F2AE4401224E492046FDF75D
:104F100017FA4C490A78520804D001220A70204638
:104F2000FDF756FA48A005F0B3FA0DA005F0B0FA67
:104F300087E600006CD30508537461727420496ED3
:104F40006974205072696E74205061726167726179
:104F50006D656420436F6E6669672E2E2E0000001B
:104F60000D0A00002A2A2A2A2A2A2A2A2A2A2A4319
:104F70006F6E6669675F53746F72655365747469A9
:104F80006E67732A2A2A2A2A2A2A2A2A2A2A2A2AB7
:104F90002A00000008060020F8050020180600205E
:104FA000CC050020D0050020C8050020C405002045
:104FB000D4050020D8050020DC0500209406002040
:104FC0000000FA4400000000E0050020CDCCCC3EFB
:104FD000A0020020A4020020A8020020FD02002060
:104FE000FE020020FF020020000300200103002039
:104FF0000203002003030020040300200503002017
:10500000B505002006030020B60500207C06002020
:1050100080060020840600200C03002007030020E7
:1050200008030020000000000000244085EBB13F91
:10503000D0A801200000A0400000A0C0330600203E
:1050400008BD0120B4050020537461727420496EBC
:105050006974205072696E74205061726167726168
:105060006D656420436F6D706C657465642E2E2EC3
:105070000000000038B56420CC210091012269466F
:10508000FDF7A6F9102422464F496520FDF7A0F947
:1050900022464E497520FDF79BF922464C49852052
:1050A000FDF796F9042422464A499520FDF790F928
:1050B000224649499920FDF78BF9224647499D2010
:1050C000FDF786F922464649A120FDF781F92246DF
:1050D0004449A520FDF77CF922464349A920FDF764
:1050E00077F922464149AD20FDF772F92246404941
:1050F000B120FDF76DF922463E49B520FDF768F96C
:1051000022463D49B920FDF763F9012422463B4977
:10511000BD20FDF75DF922463949BE20FDF758F95B
:10512000BF2022463749FDF753F9C02022463649B1
:10513000FDF74EF9C12022463449FDF749F9C22056
:1051400022463349FDF744F9C32022463149FDF791
:105150003FF9C42022463049FDF73AF9C5202246DE
:105160002E49FDF735F9C62022462D49FDF730F9C5
:10517000C72022462B49FDF72BF9C82022462A4991
:10518000FDF726F9C920042422462849FDF720F915
:10519000CD2022462649FDF71BF9D120224625497C
:1051A000FDF716F9D52022462349FDF711F9D9203C
:1051B000012422462149FDF70BF9DA202246204935
:1051C000FDF706F938BD000008060020F8050020AC
:1051D00018060020CC050020D0050020C8050020BE
:1051E000C4050020D4050020D8050020DC050020DF
:1051F000A0020020A4020020A8020020FD0200203E
:10520000FE020020FF020020000300200103002016
:1052100002030020030300200403002005030020F4
:10522000B505002006030020B60500207C060020FE
:1052300080060020840600200C03002007030020C5
:10524000080300202DE9F043C1B04FF01C0841468F
:105250004CA005F01DF941F22401002012F08EFE51
:10526000074601224DA138460CF05AFD38B150A135
:1052700053A005F00DF9012041B0BDE8F0833A4696
:10528000FF2101A80CF0DFF850A154A005F000F9AF
:105290000F2201A94DA0FCF709F870B153A005F049
:1052A000F7F854A005F0F4F85BA005F0F1F85BA165
:1052B0003AA00CF00CFF0220DEE70024DFF8749126
:1052C0004EE03A46FF2101A80CF0BDF8D7E90201F3
:1052D000884250D001A8009004EB440659F83600EB
:1052E000FBF7C6FF0546009959F836002A46491CC7
:1052F000FBF7DCFF18B9009908783E2805D0009824
:10530000007823282AD0641E29E0681C01F091FF50
:10531000002509EBC60610E000990844694606F02E
:10532000DBFD51EC100BFCF729FA06EB85018860D8
:105330000020009901F07DFF6D1C3179A942EBDC62
:105340000099085C23280AD028A005F0A1F83AA00B
:1053500005F09EF830A005F09BF800E0641E641C88
:105360004445AEDB2DA10DA00CF0B1FE38460BF08C
:10537000E3FF002080E729A108A00CF0A8FE03208D
:105380007AE70000706172616D6574657273206EFA
:10539000756D203D202564200A000000303A436FDF
:1053A0006E66696775726174696F6E2E74787400C9
:1053B00046696C65204E6F74204F70656E210A003F
:1053C0004552524F523A202573200A0023506172F1
:1053D000616D657465725F4C6973740046494C4534
:1053E0005F4845414445523A25730A004552524FA1
:1053F000523A2000436F6E66696775726174696F17
:105400006E2E7478742066696C652068656164200E
:105410006572726F720000000D0A0000303A4F6C26
:1054200064436F6E66696775726174696F6E2E741E
:1054300078740000140300206E6F20706172616D3B
:10544000657465720000000002F0E6BD074A9042F4
:1054500001D2074801E005481038064A8B0001EAEE
:10546000020101D5C160704781607047106402403D
:10547000006002407D0F7D0F002904D0016841F0DB
:10548000010101607047016821F00101016070476E
:105490002DE9F043016821F0010101600021016064
:1054A00041608160C1600161212141613E493E4A04
:1054B00010394FF03D08904203D1C1F80880BDE893
:1054C000F083394A4FF474651832904201D18D60EF
:1054D000F5E7354A4FF474163032904201D18E60B0
:1054E000EDE7314A4FF074674832904201D18F6046
:1054F000E5E72D4B2D4A6033984201D1CA60DEE7C3
:10550000294C2B4B7834A04201D1CB60D7E7DFF890
:1055100098C0284C0CF1900C604501D1CC60CEE7CE
:10552000DFF884904FF03D5C09F1A809484502D1AD
:10553000C1F80CC0C3E72049DFF87C900839484522
:1055400002D1C1F80080BAE7DFF86C8008F11808D2
:10555000404501D10D60B2E7174D3035A84201D169
:105560000E60ACE7144D4835A84201D10F60A6E7A4
:10557000114D11496035091FA84201D10A609EE70B
:105580000D4A7832904201D10B6098E70A4A903276
:10559000904201D10C6092E7074AA83290428ED126
:1055A000C1F800C08BE70000106002403D00002001
:1055B000400F002000003D201064024030B5036819
:1055C000124A1340CC680A682243D1E905452C43AE
:1055D0002243CC6922430C6A22434C6A22438C6AE0
:1055E00022434C6B22438C6B22431A430260426974
:1055F00022F00703D1E90B2422431A4342610A69CE
:1056000042604A6882608968C16030BD3F801CF09A
:1056100070472DE9FC4F07468846002415460320B5
:10562000A0EB42064BE0A8EB050081B207EB040AB1
:1056300001901FFA8AF001F00BFBA8EB040081B285
:1056400007EB050900901FFA89F001F001FB08EB58
:10565000040B1FFA8BF11FFA89F001F0F9FA08EB3D
:1056600005091FFA89F11FFA8AF001F0F1FA1FFA11
:1056700089F1A7EB04091FFA89F001F0E9FAA7EB19
:10568000050A1FFA8BF11FFA8AF001F0E1FA01987E
:1056900081B21FFA89F001F0DBFA009881B21FFA9B
:1056A0008AF001F0D5FA641C002E03DA06EB8406BA
:1056B000B61D04E0601B06EB80060A366D1EAC4288
:1056C000B1DDBDE8FC8F000010B501200AF0CEF975
:1056D00009480068012809D10848007830B103F072
:1056E0000BF901214FF47A70FCF797FEBDE81040EA
:1056F0004FF4004000F004B83C02424224940120E0
:105700000149086070470000143C014030B51B4A55
:1057100083790168002B2AD013688B431360111D15
:105720000B680468A3430B60017911440B6804689B
:1057300023430B60114C08342168036899432160AE
:10574000231D19680568A94319604179102905D0FE
:1057500011440A68006802430A6030BD216802688B
:1057600011432160196800680143196030BD007958
:10577000104402688A43026030BD0000003C0140D2
:1057800010B501F03FFD09A004F082FE0AA004F06C
:105790007FFE0A4801680AA0491C04F079FE06A0B1
:1057A00004F076FEBDE81040FEF788BF52657365D1
:1057B0006E643A20000000000D0A0000A8060020D8
:1057C00025640A002DE9F0410446284E96ED0A0AA8
:1057D00086ED1E0AB06930676420B061244F3868D6
:1057E000706401200AF00AFD0021224D05F51660C3
:1057F00005EB810292ED000A00EB810282ED000AC6
:10580000491CC9B20429F3D39FED1B0A86ED0A0A8D
:1058100004F00100401E204202D100200EF0EAFEFA
:105820000CB1A00702D501200EF0E4FE0CB1600718
:1058300002D502200EF0DEFED5ED031A95ED021A18
:10584000D5ED010A95ED000A13F07CFA00200AF06C
:10585000D5FC96ED1E0A86ED0A0A306FB0613868F5
:105860007064BDE8F0410AF0CFBC000028060020BB
:1058700030000020449F01200000000010B549497D
:10588000884209D10121084602F01CF80021BDE838
:105890001040012002F016B84349884209D1012185
:1058A000022002F00FF80021BDE81040022002F0B3
:1058B00009B83E49884209D10121042002F002F8CA
:1058C0000021BDE81040042001F0FCBF38498842A7
:1058D00009D10121082001F0F5FF0021BDE81040A9
:1058E000082001F0EFBF3349884209D1012110207F
:1058F00001F0E8FF0021BDE81040102001F0E2BFF8
:105900002D49884209D10121202001F0DBFF00212F
:10591000BDE81040202001F0D5BF2849884209D1B8
:105920000121402001F0CEFF0021BDE810404020C1
:1059300001F0C8BF2249884209D10121802001F02D
:10594000C1FF0021BDE81040802001F0BBBF1D4910
:1059500088420AD184150121204601F0B3FF204678
:10596000BDE81040002101F0ADBF174988420AD1BF
:1059700044150121204601F0A5FF2046BDE8104056
:10598000002101F09FBF114988420AD1041501216D
:10599000204601F097FF2046BDE81040002101F0AD
:1059A00091BF10BD00000240000402400008024008
:1059B000000C024000100240001402400018024097
:1059C000001C024000200240002402400028024047
:1059D0002DE9F041002201274FF0030C07FA02F5F0
:1059E0000B682B40AB422CD1066853000CFA03F431
:1059F000A64306600E79D0F800809E4046EA08066D
:105A000006600E79012E01D0022E12D18668A643BF
:105A100086604E79D0F808809E4046EA0806866087
:105A20004668AE43466045688E799640B6B23543C7
:105A30004560C568A543C560CC799C40C3681C43DC
:105A4000C460521C102AC9D3BDE8F08110B54B07C1
:105A5000DB0E9A40C90800EB8100016A0F249C40CC
:105A6000A1430162016A1143016210BD0246002098
:105A700012690A4200D001207047418370470183B8
:105A800070474FF6FF710160002101714171817112
:105A9000C171704742694A40426170472DE9F04F39
:105AA0008DB03620ADF82000A821ADF81410ADF867
:105AB0002200DA21ADF81610ADF824004FF48671FB
:105AC000ADF81810ADF826004FF49F71ADF81A101C
:105AD000ADF828004FF4B871ADF81C10ADF82A00ED
:105AE0004FF4D170ADF81E00FD48DFF8F8B3002583
:105AF00040780126DFF8F0A345F25848002806D088
:105B0000F74C4FF00609A07E01287DD061E3F448F0
:105B10004FF0230908AF0078012876D1F0480570CE
:105B20000571C570C575057685864576EFA100F2CD
:105B30009220FBF7B2FBEC48ECA1F630FBF7ADFB93
:105B4000EB48B0F8010000F0D5FF2C200EF056FA1B
:105B5000CAF87C00002858D000244FF6FF780220B5
:105B6000CDE90040C4EB8411422000EB41001E232C
:105B70003C22EB2107F066FDDAF87C1041F82400A6
:105B8000D0F8210045F258410180DAF87C0050F845
:105B90002400D0F821004180DAF87C0050F824205D
:105BA000D2F82120918050F82420D2F82120D180F1
:105BB00050F82410A1F8178050F82400A0F81580A0
:105BC000641CE4B2022CCAD3DAF87C00C94A036828
:105BD0001168C3F80B104068D16CC0F80B10052099
:105BE000CDE90006820100213623084607F02AFD90
:105BF000DAF87C108860CDE9005648238B224321D7
:105C00000E2007F01FFD01E0A0E2F3E0DAF87C20AF
:105C1000D060DAF85810C0F82510D068C0F8291004
:105C2000CDE9005648238B224321A72007F00AFD27
:105C3000DAF87C100861DAF85C20C0F825200869E1
:105C4000C0F8292005240DF114080420CDE90040F6
:105C5000601F232338F8101037F810004FF48572B6
:105C600007F0F0FCDAF87C1041F82400D0F82100AD
:105C700041F210210180DAF87C0050F82400D0F8BD
:105C800021004180DAF87C0050F82420D2F821204D
:105C9000918050F82420D2F82120D18050F824207F
:105CA0004FF6FF71A2F8151050F82410A1F8135008
:105CB00050F824200321A2F8111050F824008EA1DE
:105CC000C0F80B10641CE4B20B2CBED38948182119
:105CD0001838FBF78EFA89A004F0DAFB8DA004F0E7
:105CE000D7FB0020FDF7AEFE7D490871804941F2E7
:105CF0001020A1F801004FF6FF7423464FF4A07264
:105D0000362100200EF048F87A4810210B46C06C6E
:105D1000CDE90205CDE900414022112105200EF018
:105D20002BFC744810213623806CCDE90041CDE96D
:105D3000020600214FF4A07208460EF01DFC00245C
:105D400033E004EBC40000EB04100BEB8001DAF845
:105D50007C20601D52F82000C0F80B1065481838F0
:105D600010F8240010B101280FD01CE0CDE90095F7
:105D7000029537F8140038F81420253881B223230F
:105D8000DAF8500011F060F90DE0CDE900950295C8
:105D900037F8140038F81420253881B22323DAF8B4
:105DA000540011F051F9641CE4B24D48007984426A
:105DB000C7D30224DAF87C0050F8240007F0FFFC77
:105DC000641CE4B20B2CF5D34548047910E0484834
:105DD000322340F22F12B0F80100009037F814007F
:105DE00038F81410253880B20EF0A0F8641CE4B224
:105DF000062CECD3DFF8E88098F80300012860D186
:105E000045A004F045FB43A004F042FB88F8035092
:105E1000002439E004EBC40000EB04100BEB80021B
:105E2000DAF87C10601D51F82030C3F80B2051F8CF
:105E3000200007F0C4FC2F48183810F8240010B1D7
:105E4000012810D01EE0CDE9009505A8029530F894
:105E5000142037F814002323253881B2DAF85000D3
:105E600011F0F2F80EE0CDE9009505A8029530F8A2
:105E7000142037F814002323253881B2DAF85400AF
:105E800011F0E2F8641CE4B298F804008442C1D333
:105E900098F8044005AFDFF8589010E0B9F8010019
:105EA000009008A837F8141030F814003223253871
:105EB00080B240F22F120EF039F8641CE4B2062CC6
:105EC000ECD3DAF87C0009221849083018F0CCFA33
:105ED00041066FD5002420F0C000092856D227E0E3
:105EE00038070020FCB9012038090020303A0000B2
:105EF000D0B901206CBC01202000000066697273DB
:105F0000742074726176657273616C2066696C6569
:105F1000730000000D0A0000CFD4CABECEC4BCFE80
:105F2000B0B4BCFCB8C4B1E4000000001907002004
:105F3000DFE800F0054B6279848F9BA7B300AFF2D6
:105F40005401FA48FBF79BF908B36320F7490A5C50
:105F50005C2A37D0401EC0B20028F8D1F349F4A023
:105F600004F096FAAFF2540004F092FA98F8170091
:105F7000401E88F817000320FDF764FD88F8040030
:105F800088F8036088F8005088F8015090E0F0A08D
:105F900004F07EFAAFF2840004F07AFA88F8175021
:105FA00088F80060F548417829B1F549C8F83C10F7
:105FB00045707DE0C3E0F348C8F83C0078E00D543C
:105FC000401CC0B26428FAD3C8E798F819008007CB
:105FD0006ED5EDA004F05CFAAFF2C80004F058FAF8
:105FE00088F8036088F8005088F801500220FDF717
:105FF00029FD88F804005BE098F81900C00757D025
:10600000E5A004F045FAAFF2F40004F041FA88F894
:10601000036088F8005088F801500120FDF712FD58
:1060200088F8040044E0DFA004F032FAAFF21C105C
:1060300004F02EFA88F80250012439E0DAA004F0C6
:1060400027FAAFF2301004F023FA88F80260012436
:106050002EE0D6A004F01CFAAFF2481004F018FAB3
:10606000022088F80200012422E0D1A004F010FAF6
:10607000AFF2601004F00CFA032088F8020001244B
:1060800016E0CCA004F004FAAFF2781004F000FAA5
:10609000042088F8020001240AE0C7A004F0F8F9FF
:1060A000AFF2901004F0F4F9052088F80200012402
:1060B000002C44D098F8041098F8020081423ED990
:1060C000BE4C14F82000D8B398F817000A287DD2E7
:1060D00088F8036088F8005088F80150934901F16E
:1060E0006400FBF7DAF898F80410A4F51B73481E57
:1060F00004EB8000428898F8170023F81020401C19
:1061000088F8170088F8181098F8020000EBC00112
:1061100001EB001085490BEB800208460DF072FF81
:1061200088F802508149A6A004F0B2F9AFF21C2011
:1061300004F0AEF90020FDF785FC88F8040066E263
:10614000FFE788F81A6088F8016060E2A576CDE97B
:1061500001682823DA00B4210020CDF80090CDF8A2
:106160000C800DF09EFC4FF6FF7746234FF4A07293
:10617000D721002000970DF0D9FE46234FF4A072DE
:10618000D7210020CDF800800DF01EFEA07820233E
:1061900000EBC00101EB00100BEB80001021CDE9FA
:1061A0000071CDE902064FF4A072B42100200EF078
:1061B000E3F9DAF87C0060B10027DAF87C0050F8E7
:1061C000270007F0FCFA7F1CFFB200E044E2022F38
:1061D000F3D302227D49DAF87C0018F045F9410634
:1061E000ADD530F0C00002D00128A8D103E294F868
:1061F0002600774F80B9787870B17648007808B17A
:10620000754806706570E6702670DAF87C000DF04F
:10621000F1FE7248E063FAE1A078B0FBF9F109FB06
:10622000110000EBC00101EB00100BEB80016C488A
:106230000C90FBF732F8DFF8AC81D8F800000028AA
:10624000E9D0A2780621B2FBF1F301FB132101EBA7
:10625000C10202EB01110BEB810234490DF0D2FEB9
:1062600061A0D8F8001004F013F9AFF2583004F030
:106270000FF95B48D8F80010423001220B900BF068
:106280004FFD0028C7D194F8260010B1012803D093
:1062900007E05848E06304E057A009F0BDFF574805
:1062A000E063FF2035494978012917D1DFF8509183
:1062B000D9F80000056040F2E930FCF767F80246C3
:1062C00040F2EA30D9F80010FCF73AF83222D8F858
:1062D0000010D9F80000FAF7E9FFC0B2DFF8248116
:1062E00010B3A1780620B1FBF0F200FB121000EB16
:1062F000C00101EB00100BEB8001F81CFAF7CDFF99
:1063000037481238006EB8633F480178642001298D
:106310000BD0C8F80000F91C3CA004F0B9F8AFF2AB
:106320000C4004F0B5F87BE09AE061E1CA09002076
:106330004261636B20746F207468652070726576AB
:10634000696F7573206C6576656C2025730000009D
:10635000726F6F74206469726563746F72792C72E6
:10636000657475726E206D61696E206D656E752045
:106370006F7220736574206D656E750064940120E2
:10638000ADFD0208A95A020870726576696F7573CF
:1063900020706167650000006E6578742070616729
:1063A00065000000300000003100000032000000F5
:1063B00033000000340000003500000054BC012010
:1063C000BDF8C8EBC2B7BEB62573000019070020A0
:1063D00024940120B4050020FC0200201DB0020816
:1063E00006A90120E8020020706E616D65203D2045
:1063F0002573000051A202084D3500008D4F0208A0
:10640000BC00002040060020080300207072696E66
:106410007466696C652069732025730D0A0000009D
:106420008FA0B96B04F034F8AFF2185004F030F8D4
:1064300008F06CF98F4800688F4908602670657015
:106440000024DAF87C0050F8240007F0A2F9641C5C
:10645000E4B20B2CF5D3DAF87C000DF0CBFDD6E0DE
:10646000DFF818B204220BF104014FF48A60FBF745
:1064700067FF83A0DBF8041004F00AF8AFF26C5059
:1064800004F006F804220BF10C0140F24C40FBF73B
:1064900057FF85A0DBF80C1003F0FAFFAFF28C5029
:1064A00003F0F6FFDFF82092012209F104014FF416
:1064B0004B70FBF745FF012209F1050140F22E3038
:1064C000FBF73EFF012209F1030140F22D30FBF7FB
:1064D00037FF04227D4940F22F30FBF731FFD8F817
:1064E0000000642801DA642004E04FF4FA71884265
:1064F00000DD0846C8F8000040F23E3901220BF1E9
:1065000002014846FBF71CFF9BF80200012801D955
:106510008BF802505949042210314FF44970FBF7AF
:106520000FFF6BA0DBF8101003F0B2FFAFF21C609E
:1065300003F0AEFFDBF810100B980AF0A8FF8046BE
:106540005FEA08000BD069A003F0A2FF414669A0F2
:1065500003F09EFFAFF2446003F09AFF08E06A4840
:10656000C16D6AA003F094FFAFF2586003F090FF92
:106570004249042214314FF44870FBF7E1FE3F49D1
:10658000042218314FF44A70FBF7DAFE3B4904222B
:106590001C314FF45270FBF7D3FE384904222031EE
:1065A0004FF45370FBF7CCFE01225A494846FBF7E3
:1065B000C7FE3E70F81C0C99FAF76FFE524991ED38
:1065C000180A87ED0E0ADBED040AB8EE401AF8EE61
:1065D000600A80EE810ADFED500A20EE200ABCEE50
:1065E000C00A10EE100A87F83500FD634D7025E7EC
:1065F000C8F800008FE66570E67041F21020009048
:106600006E234FF4A072B42100200DF08FFC3E48A1
:10661000C178012901D0807820B9404806704570C2
:106620003F49C1633D480078002815D014213D48FA
:10663000FAF7DFFD0024DAF87C0050F8240007F0B8
:10664000A8F8641CE4B20B2CF5D3DAF87C000DB08A
:10665000BDE8F04F0DF0CEBC0DB0BDE8F08F0000EE
:1066600066696C6573697A652069732025640D0A13
:106670000000000030000020780600206494012013
:1066800072656164207361766520657874727564E3
:1066900065722074656D70657261747572652069CC
:1066A00073202564000000007265616420736176C8
:1066B00065206265642074656D70657261747572C1
:1066C0006520697320256400D40A0020400600205C
:1066D0007265616420736176652066696C65706FB0
:1066E000696E742069732025640D0A004552524F6B
:1066F000523A2000665F6C7365656B206572726F3D
:10670000723D256400000000F4A8012066707472D8
:106710003D2578002A0600200000C84238070020E6
:10672000A95A0208E8B901200949002807D0012820
:1067300007D0022807D0032807D000207047088818
:1067400070474888704788887047C888704700003D
:10675000AC0A002070B50C460178407881290AD334
:10676000402808D3FF2806D0FF2904D07F280ED266
:106770004038C3B20DE00020002103E004F8011B03
:10678000401CC0B2B0EB420FF8D30A2070BD4138B4
:10679000C3B28139C8B2C0EB401101EB801003EBEA
:1067A000400050434600264D2449102A286809D04D
:1067B000012249680BF0B4FA20B328680AF0BCFD46
:1067C000002070BD012209680BF0AAFA20B12868E8
:1067D0000AF0B2FD002070BD314628680AF057FE6D
:1067E00020B128680AF0A8FD002070BD154B2022BA
:1067F000214628680BF07EFBD0B128680AF09CFD8A
:10680000002070BD314628680AF041FE20B128689A
:106810000AF092FD002070BD0A4B1822214628681C
:106820000BF068FB20B128680AF086FD002070BDDF
:1068300028680AF081FD002070BD0000A40A002035
:10684000B400002034020020FEE700002DE9FC41E6
:106850000121022001F028F80121042001F024F890
:1068600000248DF8064001268DF8046003258DF87C
:10687000055040200090134F69463846FFF7A8F8AE
:10688000802000908DF804408DF805506946384608
:10689000FFF79EF8022000908DF804608DF8064006
:1068A0008DF8055069460848FFF792F801F038FA6C
:1068B0000649F82804D0F02802D00C70BDE8FC810D
:1068C0000E70FBE700080240000402405E07002053
:1068D00070B50B4C002525600A48016821F4404141
:1068E0000160016841F4804101606560022009F0A7
:1068F000E5F801202060022009F0E0F8256070BD75
:106900009882404200040240024801210160416037
:10691000704700009882404270B50B4C00252560FE
:106920000A48016821F440410160016841F4804156
:10693000016001266660022009F0C0F8266002208E
:1069400009F0BCF8256070BD988240420004024006
:106950002DE9F047814600241548016821F44041A3
:106960000160016801600025124E00274FF0010808
:10697000C6F89872022009F0A1F8C6F8988260065D
:10698000040ED6F81C0208B1641CE4B2012009F020
:1069900095F86D1CEDB2082DEAD3B9F1000F04D0C3
:1069A000FFF796FF2046BDE8F087FFF7B5FFF9E750
:1069B00000040240008040422DE9F04105461448A1
:1069C000016821F440410160016841F480410160A7
:1069D000104E4FF00008C6F8988200240127E809FD
:1069E000C6F89C026806050E022009F067F8C6F892
:1069F0009872022009F062F8C6F89882022009F025
:106A00005DF8641CE4B2082CE9D3BDE8F081000015
:106A1000000402400080404270B50B48016821F438
:106A200040410160016841F480410160074C012050
:106A300060602060042009F041F8002565600420B2
:106A400009F03CF8256070BD000402409882404285
:106A500010B50C48016821F440410160016841F41F
:106A600080410160084C002020606060042009F033
:106A700025F8012020606060BDE81040042009F086
:106A80001DB80000000402409882404270B5002406
:106A90001148016821F440410160016801600F4D17
:106AA0000126C5F89C62012009F008F8C5F8986233
:106AB000012009F003F807E0641CE4B2FA2C03D9C2
:106AC000FFF7C6FF012070BDD5F81C020028F3D1E6
:106AD000C5F8980270BD00000004024000804042EA
