:020000040800F2
:10000000F0B80120DD120008C9060008CB06000880
:10001000CF060008D3060008D7060008000000003D
:10002000000000000000000000000000DB060008E7
:10003000DD06000800000000DF060008E1060008F9
:10004000F7120008F7120008F7120008F71200086C
:10005000F7120008F7120008F7120008F71200085C
:10006000F7120008F7120008F7120008F71200084C
:10007000F7120008F7120008F7120008F71200083C
:10008000F7120008F7120008F7120008F71200082C
:10009000F7120008F7120008F7120008F71200081C
:1000A000F7120008F7120008F7120008F71200080C
:1000B000F7120008F7120008F7120008F7120008FC
:1000C000F7120008F7120008F7120008F7120008EC
:1000D000F712000853120008F7120008F712000880
:1000E000F7120008F7120008F7120008F7120008CC
:1000F000F7120008F7120008F7120008F7120008BC
:10010000F7120008F7120008F7120008F7120008AB
:10011000F7120008F7120008F7120008F71200089B
:10012000F7120008F7120008F7120008F71200088B
:10013000F7120008F7120008F7120008F71200087B
:10014000F7120008F7120008F7120008F71200086B
:10015000F7120008F7120008F7120008F71200085B
:10016000F7120008F7120008F7120008F71200084B
:10017000F7120008F7120008F7120008F71200083B
:10018000F7120008F712000800F002F800F041F83A
:100190000AA090E8000C82448344AAF10107DA45E2
:1001A00001D100F036F8AFF2090EBAE80F0013F0F3
:1001B000010F18BFFB1A43F0010318473C5F000012
:1001C0005C5F0000103A24BF78C878C1FAD85207A3
:1001D00024BF30C830C144BF04680C6070470000C1
:1001E0000023002400250026103A28BF78C1FBD840
:1001F000520728BF30C148BF0B607047642905F023
:100200006D85002070471FB505F0EEFE1FBD10B5CF
:1002100010BD05F0B7FE1146FFF7F5FF00F054F8EA
:1002200005F0D5FE03B4FFF7F2FF03BC00F0B2FF08
:1002300030BF72B6704762B6704780F30888704767
:100240002DE9F05F0746884691460025BB464446A7
:10025000AA461DE0E0780606A07846EA00466078E7
:1002600046EA002620780643241D2846691C8DB2E4
:100270009F4941F82060B5F5007F07D100254FF474
:100280000072584600F073FB0BF5006B0AF1040A8C
:10029000CA45DFD325B12A469549584600F067FB89
:1002A000BDE8F09F10B50446206892490840B0F1BF
:1002B000005F08D16068904908602068FFF7BDFFC3
:1002C0008D480068804710BD2DE9F04F8FB04FF08A
:1002D000000B0025142108A805F060FDA8460020A9
:1002E000009000248146DFF814A24FF4A06001F0D2
:1002F00015F8A82000F0CCFE4FF4E13000F057FFD5
:100300007FA005F0ABFC4FF40A71002002F07BFDEA
:100310008046B8F1000F03D180A005F09FFCCEE02D
:1003200084A005F09BFC002400F0C2FC054608E018
:1003300000F0BEFC05464FF4967000F00BFF601C09
:1003400084B2052C01DA002DF2D175B181A005F03F
:1003500085FC4FF4967000F0FDFE83A005F07EFC56
:100360004FF4967000F0F6FEA9E083A005F076FC4D
:1003700005F0A6FB88490122086888A103F0DCFD8E
:100380000DAA0EA986A005F037FC48B185A005F09E
:1003900065FCC82000F0DEFEC82000F0DBFE8EE029
:1003A00086A005F05BFC0E98810A87A005F056FC3C
:1003B0000D98810A8AA005F051FC01228EA14046C9
:1003C00003F0E5FD05462DB1832229468DA005F0F9
:1003D00045FC74E0862190A005F040FC01A986A0B0
:1003E00004F07CFA05462DB18A22294685A005F045
:1003F00035FC64E08D228BA0019905F02FFC4FF0B5
:100400000009002633E03146404604F0B2F88C4B38
:10041000042207A9404603F06CFE9DF81F00070662
:100420009DF81E0047EA00479DF81D0047EA002797
:100430009DF81C0007432046611C8CB22C4941F8F2
:10044000207009F101001FFA80F9B4F5007F0DD189
:100450009D2249467BA005F001FC00244FF4007268
:100460002349504600F083FA0AF5006A361D0198C8
:10047000B042C8D8A32168A005F0F0FB24B1224601
:100480001B49504600F073FA72A15BA004F07BFC9C
:1004900074A005F0E3FB1948406800F07F40B0F11C
:1004A000006F07D1AC215CA005F0D8FB1348FFF723
:1004B000F9FE02E074A005F0D1FB00BFFEE7414663
:1004C000002002F090FC77A005F0C8FB0B484068C4
:1004D00000F07F40B0F1006F05D174A005F0BEFBC5
:1004E0000648FFF7DFFE00200FB0BDE8F08F0000E8
:1004F000740000200000FE2F000000200010010802
:10050000737461727420626F6F746C6F6164657272
:100510002E2E2E2E2E2E2E2E0D0A00006D796D61A0
:100520006C6C6F632066696C70206572726F720DFF
:100530000A0000006D796D616C6C6F632066696CF8
:1005400070207375636365737365642121212121B4
:10055000210D0A0053442043617264204572726F7A
:1005600072210D0A00000000506C65617365204324
:100570006865636B210D0A007364206361726420F7
:10058000696E697420737563636573736564212193
:10059000212121210D0A00004CB20120303A000037
:1005A0003000000053442043617264204661746649
:1005B00073204572726F72210D0A00004641544645
:1005C00053204F4B210D0A00534420546F74616C2B
:1005D0002053697A653A202564204D4200000000CE
:1005E00053442020467265652053697A653A202578
:1005F00064204D4200000000303A534D3344502EE9
:1006000062696E007265733D2564206C696E653D9C
:1006100025640D0A000000006C696E653A25640DC2
:100620000A00000066696C65696E666F2E66736904
:100630007A653D2564206C696E653A25640D0A0073
:10064000680000206A3D2564206C696E653A256467
:100650000D0A0000303A4F4C44534D3344502E6243
:10066000696E0000BFAACABCD6B4D0D0D0C2464C76
:10067000415348D3C3BBA7B4FAC2EBA3A1A3A1A320
:10068000A1A3A10D0A000000B7C7464C415348D3AF
:10069000A6D3C3B3CCD0F22CCEDEB7A8D6B4D0D07C
:1006A000210D0A00657869740D0A0000D6B4D0D017
:1006B000D4ADD3C3BBA7B4FAC2EBA3A1A3A1A3A19A
:1006C000A3A10D0A00000000704700BFFEE700BFB5
:1006D000FEE700BFFEE700BFFEE7704770477047C8
:1006E000704700000CB5002001900090764800682B
:1006F00040F480307449086000BF7348006800F41B
:10070000003000900198401C0190009818B90198A1
:10071000B0F5A04FF1D16C48006800F4003010B182
:100720000120009001E0002000900098012846D1AF
:1007300065484030006840F08050634940310860AF
:100740006248006840F44040604908605E480830F4
:1007500000685D49083108600846006840F40040C0
:1007600008600846006840F4A05008605848091F17
:100770000860081F006840F08070091F086000BF13
:100780005148006800F000700028F9D040F2057070
:10079000504908604C480830006820F003004A497E
:1007A000083108600846006840F00200086000BF99
:1007B00045480830006800F00C000828F8D10CBD4E
:1007C00010B54548006840F47000434908603E4851
:1007D000006840F001003C49086000203A490831B7
:1007E0000860394800683D490840374908603C487E
:1007F000091D0860081F006820F48020091F086098
:10080000002031490C310860FFF76CFF4FF00060A9
:1008100031498039086010BD70B5002000220223E4
:1008200000240221284D08352D6805F00C0020B168
:10083000042806D0082834D107E02A4D2A4E356016
:1008400033E02A4D284E35602FE01F4D2D1D2D68B9
:10085000C5F380541C4D2D1D2D6805F03F0154B18A
:10086000224DB5FBF1F5184E361D3668C6F38816D5
:1008700005FB06F209E01B4DB5FBF1F5124E361DE6
:100880003668C6F3881605FB06F20F4D2D1D2D6840
:10089000C5F301456D1C6B00B2FBF3F5124E3560DC
:1008A00003E0104D104E356000BF00BF064D083507
:1008B0002D68C5F303150E4E705D0B4D2D68C540B8
:1008C000094E356070BD00000038024000700040E5
:1008D00019544007003C024088ED00E0FFFFF6FE9F
:1008E000103000240024F4000400002040787D0132
:1008F00008000020014608687047014648488142C8
:1009000001D2002070474748814201D20820F9E710
:100910004548814201D21020F4E74448814201D287
:100920001820EFE74248814201D22020EAE74148FF
:10093000814201D22820E5E73F48814201D23020A0
:10094000E0E73E48814201D23820DBE73C48814263
:1009500001D24020D6E73B48814201D24820D1E76E
:100960003948814201D25020CCE75820CAE72DE90E
:10097000F04704460E4617464FF009080025A946E1
:10098000B4F1006F02D304F0030008B1BDE8F087B2
:1009900001F054FE002001F034FE254604EB8709E7
:1009A0002A48854215D211E02846FFF7A3FF401CD4
:1009B00058B12846FFF7A1FF8246022101F092FEBE
:1009C0008046B8F1090F01D002E02D1D4D45EBD353
:1009D00000BFB8F1090F0CD108E02046316801F0E2
:1009E0009AFF092800D003E0241D361D4C45F4D39E
:1009F00000BF012001F005FE01F02DFE00BFC5E79C
:100A000030B503460C461546002206E01846FFF7AF
:100A100071FF44F822001B1D521CAA42F6D330BDC0
:100A2000004000080080000800C000080000010825
:100A30000000020800000408000006080000080882
:100A400000000A0800000C0800000E080000FF1F4C
:100A500010B50446204600F091FA10BD10B53820BC
:100A600000F07AFA10BD10B5102000F075FA10BD34
:100A700010B50820FE490880FF20FFF7E9FF10BDF0
:100A800010B5002400BFFF20FFF7E2FFFF2801D1CF
:100A9000002010BD641C6FF07F408442F3D301201E
:100AA000F7E710B50820F249891C0880FFF7E8FF36
:100AB00008B9002010BDFFF7DBFF0120FAE770B591
:100AC00005464FF6FF7401E0601E84B2FF20FFF779
:100AD000BFFFA84201D0002CF6D10CB9FF2070BD99
:100AE0000020FCE770B504460D46FE20FFF7E7FF47
:100AF00008B1012070BD04E0FF20FFF7A9FF2070BE
:100B0000641C281EA5F101018DB2F5D1FF20FFF76D
:100B10009FFFFF20FFF79CFF0020EBE770B5064624
:100B20000D46FFF7ADFF08B1012070BD2846FFF765
:100B30008FFFFD2D19D0002404E0305DFFF788FF02
:100B4000601C84B2B4F5007FF7DBFF20FFF780FF65
:100B5000FF20FFF77DFFFF20FFF77AFF044604F038
:100B60001F00052801D00220DFE70020DDE72DE986
:100B7000F04105460C4617464FF00008FFF778FF96
:100B8000FFF78FFF10B1FF20BDE8F08145F0400076
:100B9000FFF75EFF200EFFF75BFFC4F30740FFF790
:100BA00057FFC4F30720FFF753FFE0B2FFF750FFF2
:100BB0003846FFF74DFF0C2D02D1FF20FFF748FF0D
:100BC0004FF01F0800BFFF20FFF742FF064606F068
:100BD000800030B1B8F10000A8F1010101F0FF0878
:100BE000F1D13046D0E770B50546012200210A2038
:100BF000FFF7BDFF044624B910212846FFF772FF16
:100C00000446FFF735FF0CB1012070BD0020FCE762
:100C100070B50546012200210920FFF7A8FF044610
:100C200024B910212846FFF75DFF0446FFF720FF97
:100C30000CB1012070BD0020FCE77FB56846FFF7CE
:100C4000E7FF10B1002004B070BD9DF8000000F077
:100C5000C000402809D19DF809009DF8081000EB5C
:100C60000120401C84B2A50220E09DF8050000F0A0
:100C70000F009DF80A1000EBD1109DF8091001F04B
:100C8000030100EB4100861C9DF8080080119DF8CF
:100C9000071000EB81009DF8061001F0030100EB46
:100CA0008120441CA6F1090004FA00F52846CAE791
:100CB000F8B500F07CF9FFF7D1FE002504E0FF2035
:100CC000FFF7C6FE681C85B20A2DF8DB142600BFAC
:100CD000952200210846FFF74AFF0446012C04D064
:100CE000301EA6F101018EB2F2D1002061490870D8
:100CF000012C4AD187224FF4D5710820FFF737FF26
:100D0000012847D1002506E0FF20FFF7A1FE0DF8DE
:100D10000500681C85B2042DF6DB9DF80200012851
:100D200079D19DF80300AA2875D14FF6FE7600BF51
:100D3000012200213720FFF71AFF01229107292005
:100D4000FFF715FF044624B1301EA6F101018EB253
:100D5000EED1002E5FD0012200213A20FFF707FFDD
:100D6000002858D1002506E0FF20FFF771FE0DF89E
:100D70000500681C85B2042DF6DB9DF8000000F02C
:100D8000400018B106203B49087044E0042039496E
:100D9000087040E0012200213720FFF7E8FE012221
:100DA00000212920FFF7E3FE0446012C17DC022076
:100DB000304908704FF6FE7600BF0122002137202F
:100DC000FFF7D5FE012200212920FFF7D0FE0446BF
:100DD000BCB1301EA6F101018EB2EED111E00120AE
:100DE000244908704FF6FE7600BF0122002110460C
:100DF000FFF7BDFE044624B1301EA6F101018EB2FC
:100E0000F3D12EB1012251021020FFF7B0FE10B134
:100E1000002018490870FFF72BFEFFF724FE154845
:100E2000017815A004F01AFF1248007808B10020DC
:100E3000F8BD0CB12046FBE7AA20F9E72DE9F04107
:100E400006460F4615460B480078062800D07F025C
:100E5000012D19D1012239461120FFF788FE0446E1
:100E600064BB69023046FFF73DFE044626E0000001
:100E7000180402401800002053445F547970652024
:100E80003D2025640D0A0000012239461220FFF79B
:100E90006EFE044600BF4FF400713046FFF722FE9D
:100EA000044606F50076681EC0B2051E01D0002C6F
:100EB000F1D0012200210C20FFF759FEFFF7D8FDE9
:100EC0002046BDE8F0812DE9F04106460F46154663
:100ED00020480078062800D07F02012D0CD1012285
:100EE00039461820FFF743FE04466CBBFE2130460E
:100EF000FFF714FE044627E016480078012809D0C1
:100F0000012200213720FFF732FE01222946172057
:100F1000FFF72DFE012239461920FFF728FE04466F
:100F200094B900BFFC213046FFF7F8FD044606F5F2
:100F30000076681EC0B2051E01D0002CF2D0FD2143
:100F40000020FFF7EBFD0446FFF792FD2046BDE8C9
:100F5000F08100001800002010B5044649480088C0
:100F60004FF6C7710840474908800846008820436B
:100F700008800121434801F029FA10BD10B504464C
:100F800000BF02213F4801F0EBFA0028F9D02146CA
:100F90003C4801F09CFA00BF01213A4801F0E0FA18
:100FA0000028F9D0374801F08FFAC0B210BD00B563
:100FB00087B00121062000F045FD0121C80300F0A3
:100FC0008AFD06220A21304800F029FB06220B2167
:100FD0002D4800F024FB06220C212B4800F01FFBBB
:100FE0004FF48060009002208DF805008DF8040019
:100FF00000208DF806008DF807006946224800F0B1
:1010000083FA4FF40060009069461F4800F07CFAB4
:101010004FF48050009069461B4800F075FA082094
:10102000009001208DF804006946184800F06CFA21
:1010300008201649183108800020ADF808004FF448
:101040008270ADF80A000020ADF80C000220ADF867
:101050000E000120ADF810004002ADF81200002093
:10106000ADF81400ADF816000720ADF8180002A97D
:10107000044801F0B1F80121024801F0A7F907B0D6
:1010800000BD0000003C0040000802400004024097
:1010900010B504466FF0040000F092F9E11704EB7C
:1010A0005171C1F3C701394A11701046007800EB45
:1010B0004001C1EBC0104FF6FF7101EAC000344996
:1010C000088010BD0146314A12784A434FF0E023B0
:1010D0005A6100229A611A46126942F001021A61AD
:1010E00000BF4FF0E022106900F001021AB100F4D5
:1010F0008032002AF5D04FF0E022126922F001027E
:101100004FF0E0231A6100229A6170470146204A9D
:1011100012884A434FF0E0235A6100229A611A462E
:10112000126942F001021A6100BF4FF0E02210691B
:1011300000F001021AB100F48032002AF5D04FF01D
:10114000E022126922F001024FF0E0231A6100222E
:101150009A61704770B504464FF4077094FBF0F045
:10116000C6B24FF4077094FBF0F100FB114085B25A
:1011700005E04FF40770FFF7C9FF701EC6B2002EDE
:10118000F7D115B12846FFF7C1FF70BD1A00002046
:101190001C00002000BF704700BF4C4A128802F0BC
:1011A0004002002AF9D0C2B2484B9A80704710B56D
:1011B00088B004460121084600F044FC01211020BB
:1011C00000F09AFC07220921414800F028FA072282
:1011D0000A213F4800F023FA4FF4C0600690022035
:1011E0008DF81C008DF81D0000208DF81E000120D8
:1011F0008DF81F0006A9364800F086F902940020F9
:10120000ADF80C00ADF80E00ADF81000ADF814000C
:101210000C20ADF8120002A92C4800F0CEFD0121EF
:101220002A4800F052FE012240F22551274800F0E2
:1012300002FF25208DF8040003208DF805008DF8AD
:10124000060001208DF8070001A800F06CF808B036
:1012500010BD10B540F225511C4800F027FF10B317
:101260001A4800F061FEC4B21A48008800F4004039
:10127000C8B91848008800F4804060B10A2C03D037
:1012800000201449088020E01248008840F4004003
:101290001049088019E00D2C06D10E48008840F452
:1012A00080400C49088010E00A480088C0F30D0017
:1012B00009490C5407480088401C06490880084624
:1012C0000088C72801DD0020088010BD0010014003
:1012D00000000240240000207408002009488047D4
:1012E00009480047FEE7FEE7FEE7FEE7FEE7FEE708
:1012F000FEE7FEE7FEE7FEE704480549054A064B20
:1013000070470000C107000889010008F0B2012001
:10131000F0B80120F0B40120F0B4012032490143BB
:10132000324A1160704770B5002100230F22C47843
:101330001CB32E4C246804F4E064C4F5E064C4F3E8
:101340000721C1F10404E3B20A4144789C40E1B2B0
:101350008478144021430C07210E254C05786155F3
:10136000047804F01F050124AC4005786D11AD0030
:1013700005F1E025C5F8004109E0047804F01F05F7
:101380000124AC401B4D0678761145F8264070BD0F
:10139000194A0A400243154B1B1F1A60704739B1A6
:1013A000124A121D12680243104B1B1D1A6006E000
:1013B0000E4A121D126882430C4B1B1D1A607047A7
:1013C000042808D14FF0E021096941F004014FF0F1
:1013D000E022116107E04FF0E021096921F00401EA
:1013E0004FF0E022116170470000FA050CED00E0BB
:1013F00000E400E080E100E080FFFF1F10B504463C
:101400009848844208D10121084600F086FB00215B
:10141000012000F082FB76E09348844208D101214C
:10142000022000F07AFB0021022000F076FB6AE047
:101430008E48844208D10121042000F06EFB002177
:10144000042000F06AFB5EE08948844208D1012153
:10145000082000F062FB0021082000F05EFB52E053
:101460008448844208D10121102000F056FB00215D
:10147000102000F052FB46E07F48844208D1012151
:10148000202000F04AFB0021202000F046FB3AE03B
:101490007A48844208D10121402000F03EFB00211F
:1014A000402000F03AFB2EE07548844208D101212B
:1014B000802000F032FB0021802000F02EFB22E093
:1014C0007048844208D10121801500F026FB0021DC
:1014D000A01500F022FB16E06B48844208D10121E0
:1014E000401500F01AFB0021601500F016FB0AE021
:1014F0006648844207D10121001500F00EFB00214F
:10150000201500F00AFB10BDF0B50A4600210023AB
:10151000002400BF3DE0012505FA01F3156805EA46
:1015200003049C4234D105684F000326BE40B543F6
:10153000056015794E00B54006683543056015799C
:10154000012D02D01579022D16D185684F00032692
:10155000BE40B543856055794E00B5408668354339
:101560008560456801268E40B5434560456896799B
:101570008E40B6B235434560C5684F000326BE4075
:10158000B543C560D5794E00B540C6683543C560E2
:10159000491C1029BFD3F0BD4FF6FF710160002137
:1015A000017141718171C171704708B54FF480328A
:1015B0000092009A0A430092009AC261C161009AA7
:1015C000C261C2690092C269009208BD0246002051
:1015D00013690B400BB1012000E000207047014669
:1015E000086980B270470246002053690B400BB176
:1015F000012000E0002070470146486980B2704732
:1016000001837047418370470AB1018300E0418341
:1016100070474161704742694A4042617047F0B586
:10162000002300244D07ED0E02FA05F3CE1000F161
:10163000200555F826504E07F70E0F26BE40B5433D
:10164000CF1000F1200646F82750CE1000F12005FB
:1016500055F8265045EA0304CE1000F1200545F860
:101660002640F0BD00000240000402400008024095
:10167000000C02400010024000140240001802401A
:10168000001C0240002002400024024000280240CA
:10169000F948006840F00100F74908600020F64969
:1016A00008310860F4480068F4490840F2490860CD
:1016B000F348091D0860F348EF4984310860F04899
:1016C0001038091D0860EC48006820F48020EA49C1
:1016D00008600020E8490C310860E7498C31086057
:1016E00070470021E44A921C11701146087070473F
:1016F00010B501460022002300204A11012A02D120
:10170000DD4C236808E0022A03D1DB4C70342368E7
:1017100002E0D94C7434236801F01F020124944084
:101720001C400CB1012000E0002010BD38B50020A5
:1017300000900024002500BF3120FFF7D9FF0546A7
:101740000098401C00900098B0F5A04F01D0002DEB
:10175000F2D03120FFF7CCFF08B1012400E00024D3
:10176000204638BD01460020C34A106820F0F8002A
:1017700040EAC10010607047C3490860704700210B
:10178000BD4A703211701170012802D004280AD1AC
:1017900004E00121B84A7032117005E00521B64A13
:1017A0007032117000E000BF00BF7047B749086099
:1017B000704770B5049C41EA82150126C6EB5306BA
:1017C00045EA0645054345EA0465AB4E361D3560DE
:1017D00070BDAD4908667047820142EA0172A64BAE
:1017E00084331A607047A8498866704710B5830132
:1017F00043EA016343EA02739F4C8834236010BDBF
:10180000A14908677047A049C86470470246002094
:10181000994B0833186820F0EC6042EA0103184342
:10182000954B08331860704702460020924B0833EE
:10183000186820F0784042EA010318438E4B0833C1
:1018400018607047014600208B4A0832106820F06B
:10185000030008431060704787480830006800F0B4
:101860000C00704701460020834A0832106820F0BF
:10187000F000084310607047014600207E4A08329D
:10188000106820F4E05008431060704701460020C3
:10189000794A0832106820F4604040EAC1001060C4
:1018A0007047F0B500210022002402250026022303
:1018B000714F08373F6807F00C0121B1042905D0AA
:1018C000082937D105E0724F076036E0714F076095
:1018D00033E0694F3F1D3F68C7F38056664F3F1D99
:1018E0003F6807F03F036EB16A4FB7FBF3F7DFF8CD
:1018F00088C10CF1040CDCF800C0CCF3881C07FB99
:101900000CF40CE0624FB7FBF3F7DFF86CC10CF19D
:10191000040CDCF800C0CCF3881C07FB0CF4564F19
:101920003F1D3F68C7F301477F1C7D00B4FBF5F7FF
:10193000076002E0564F076000BF00BF4E4F0837F8
:101940003F6807F0F0010909534F7A5C0768D740F8
:101950004760494F08373F6807F4E051890A4E4F06
:101960007A5C4768D7408760434F08373F6807F481
:101970006041490B484F7A5C4768D740C760F0BD6B
:10198000002100F44072B2F5407F0AD13A4A083291
:10199000116821F4F811414A02401143364A0832D5
:1019A0001160354A70321268C0F30B031A43324B90
:1019B00070331A60704735494439086070473349BD
:1019C000403908607047364908607047014600207A
:1019D000294A8C32106820F01F004A1E1043264A04
:1019E0008C321060704701460020234A8C32106808
:1019F00020F4F8504A1E40EA02201F4A8C32106040
:101A00007047014600201C4A8C32106820F44010B8
:101A100008431060704701460020174A8C32106856
:101A200020F4400008431060704701460020124A2D
:101A30008C32106820F44030084310607047194918
:101A40000860704739B10C4A3032126802430A4BC1
:101A500030331A6006E0084A303212688243064B7F
:101A600030331A607047F9B1034A343212680243C6
:101A7000014B34331A601CE000380240FFFFF6EAE5
:101A8000103000240030002000004742800E474202
:101A90000024F40040787D0126000020FFFCFF0FA9
:101AA0005C014742E01147428F4A126882438E4BE5
:101AB0001A60704739B18C4A121D126802438A4B72
:101AC0001B1D1A6006E0884A121D12688243864B6D
:101AD0001B1D1A60704739B1834A0C3212680243E9
:101AE000814B0C331A6006E07F4A0C321268824345
:101AF0007D4B0C331A60704739B17B4A1032126843
:101B00000243794B10331A6006E0774A10321268AC
:101B10008243754B10331A60704739B1724A243AC8
:101B200012680243704B243B1A6006E06E4A243A66
:101B3000126882436C4B243B1A60704739B16A4A81
:101B4000203A12680243684B203B1A6006E0664A5E
:101B5000203A12688243644B203B1A60704739B1C7
:101B6000614A1C3A126802435F4B1C3B1A6006E054
:101B70005D4A1C3A126882435B4B1C3B1A607047FB
:101B800039B1594A143A12680243574B143B1A6050
:101B900006E0554A143A12688243534B143B1A60CC
:101BA000704739B1504A103A126802434E4B103B0D
:101BB0001A6006E04C4A103A126882434A4B103BC6
:101BC0001A60704739B1484A1C3212680243464BCA
:101BD0001C331A6006E0444A1C3212688243424BAE
:101BE0001C331A60704739B13F4A203212680243F1
:101BF0003D4B20331A6006E03B4A20321268824394
:101C0000394B20331A60704739B1374A2432126891
:101C10000243354B24331A6006E0334A24321268FB
:101C20008243314B24331A60704739B12E4A2C322B
:101C3000126802432C4B2C331A6006E02A4A2C32DD
:101C400012688243284B2C331A60704739B1264AF8
:101C5000303212680243244B30331A6006E0224AC5
:101C6000303212688243204B30331A6070470128AB
:101C700008D11D493C31096841F008011A4A3C323B
:101C8000116007E018493C31096821F00801164A43
:101C90003C321160704739B1134A273A1278024337
:101CA000114B273B1A7006E00F4A273A12788243FD
:101CB0000D4B273B1A7070470B484030006840F0CE
:101CC0008070094940310860704701460020064A8B
:101CD000283A12680A400AB1012000E0002070474B
:101CE00001492639087070473438024010B504465F
:101CF000FA48844208D101211020FFF752FF002149
:101D00001020FFF74EFF57E0F548844209D101212A
:101D10004804FFF735FF00214FF40030FFF730FF94
:101D20004AE0F048844209D101218804FFF728FFE6
:101D300000214FF48020FFF723FF3DE0EA48844272
:101D400009D10121C804FFF71BFF00214FF4002037
:101D5000FFF716FF30E0E548844209D1012108056C
:101D6000FFF70EFF00214FF48010FFF709FF23E07B
:101D7000DF48844208D101212020FFF712FF002113
:101D80002020FFF70EFF17E0DA48844209D1012135
:101D90008807FFF7F5FE00214FF08040FFF7F0FEC7
:101DA0000AE0D548844207D101214005FFF7E8FE4B
:101DB00000216005FFF7E4FE10BD2DE9FF47054651
:101DC0000E460024A14600BFA046B08900B100BF66
:101DD0002C8A24F44054F08804432C82AC8941F2CC
:101DE0000C608443B08831890843718908430443F7
:101DF000AC81AC8A24F44074B0890443AC82684658
:101E0000FFF74FFDB548854202D0B948854202D15F
:101E1000DDF80C9001E0DDF80890A88900F400409E
:101E200040B109EBC90000EB091031684900B0FB73
:101E3000F1F707E009EBC90000EB091031688900F0
:101E4000B0FBF1F76420B7FBF0F004012009642136
:101E500001FB1078A88900F4004040B1322000EB6B
:101E6000C800B0FBF1F000F00700044308E03220A6
:101E700000EB08106421B0FBF1F000F00F00044308
:101E80002C81BDE8FF874FF416510160002181804D
:101E9000C18001810C21418100218181704710B5F1
:101EA00002460020108A20F470600B884C8823437F
:101EB0008C882343CC8823431843108210BD002113
:101EC000018041808180C180704721B1828942F4C4
:101ED0000052828104E082894DF6FF731A408281AC
:101EE0007047028B02F47F420283028B0A43028313
:101EF000704721B1828942F40042828103E08289E5
:101F0000C2F30E028281704721B1828A42F40062DC
:101F1000828204E0828A4FF2FF731A408282704705
:101F2000C1F308028280704701468888C0F3080028
:101F30007047028A4FF6F0731A400282028A0A43FF
:101F40000282704721B1828942F00202828104E05C
:101F500082894FF6FD731A408281704782894FF261
:101F6000FF731A40828182890A4382817047028A04
:101F70004FF6DF731A400282028A0A4302827047D8
:101F800021B1028A42F48042028204E0028A4BF6C6
:101F9000FF731A4002827047818941F001018181FB
:101FA000704721B1828A42F00802828204E0828A6C
:101FB0004FF6F7731A4082827047028BD2B20283C7
:101FC000028B42EA01220283704721B1828A42F0E9
:101FD0002002828204E0828A4FF6DF731A408282F6
:101FE000704721B1828A42F01002828204E0828A24
:101FF0004FF6EF731A4082827047828A4FF6FB7366
:102000001A408282828A0A438282704721B1828A80
:1020100042F00202828204E0828A4FF6FD731A4087
:10202000828270471AB1838A0B43838202E0838ADB
:102030008B4383827047F0B50346002400260025B9
:10204000002040F66A17B94200D100BF1846C1F31C
:10205000421401F01F06012707FA06F5012C01D1F1
:102060000C3004E0022C01D1103000E014301AB121
:1020700007682F43076002E00768AF430760F0BDC1
:1020800002460020B1F5007F00D100BF13880B404D
:102090000BB1012000E00020704701F40072B2F59E
:1020A000007F00D100BFCA430280704770B502466E
:1020B000002400230025002040F66A16B14200D11A
:1020C00000BFC1F3421501F01F03012606FA03F316
:1020D000012D13D19689334017E000000010014014
:1020E0000044004000480040004C004000500040C8
:1020F0000014014000780040007C0040022D02D115
:10210000168A334001E0968A33400C12012606FA03
:1021100004F41688344013B10CB1012000E0002013
:1021200070BD10B50022002340F66A14A14200D110
:1021300000BF0A1201249440A3B2DC43048010BD06
:1021400010B50446FB48844208D101218014FFF7F2
:1021500028FD0021A014FFF724FD3CE0F64884424E
:1021600008D101210014FFF70BFD00212014FFF717
:1021700007FD30E0F148844208D10121C013FFF788
:10218000FFFC0021E013FFF7FBFC24E0EC48844255
:1021900008D101214014FFF704FD00216014FFF76E
:1021A00000FD18E0E748844209D101210805FFF746
:1021B000F8FC00214FF48010FFF7F3FC0BE0E2483D
:1021C000844208D101214805FFF7EBFC00214FF4C0
:1021D0000010FFF7E6FC10BD10B50022028802F4E3
:1021E00041520B884C8823438C882343CC8823435B
:1021F0000C8923434C8923438C892343CC89234373
:102200001A430280838B4FF2FF74234083830B8A2F
:10221000038210BD2DE9F04F0025022300244FF06A
:10222000010900220026002794469046B0F81CA021
:102230004FF2400B0AEA0B0AA0F81CA04FF0020A6A
:10224000A0F820A0858BD1F808A0BAF1020F01D127
:1022500000BF82E0B1F804A0BAF1000F02D14FF044
:10226000010901E04FF00209DFF8E0A2DAF800A06E
:102270000AF4000ABAF1000F09D0DFF8D0A2DAF8A8
:1022800000A02AF4000ADFF8C4B2CBF800A0DFF8FF
:10229000BCA20AF17C0ADAF800A0CAF3881CDFF8B5
:1022A000ACA20AF17C0ADAF800A0CAF30278DFF8DF
:1022B0009CA2AAF1040ADAF800A00AF03F07DFF8AE
:1022C0008CA2AAF1040ADAF800A00AF4800ABAF58E
:1022D000800F08D1DFF878A2BAFBF7FA0AFB0CFAF4
:1022E000BAFBF8F607E0DFF86CA2BAFBF7FA0AFBD4
:1022F0000CFABAFBF8F6B1F806A0BAF5007F0ED1D9
:102300004FEA162A0AEB8A0A4FEA4A0AD1F808B0BD
:10231000BAFBFBFA0AF1050A1FFA8AF20FE04FEA4C
:10232000491AB6FBFAFA0AEB8A0A4FEA4A0AD1F8C6
:1023300008B0BAFBFBFA0AF1050A1FFA8AF24FF05D
:102340000A0AB2FBFAF202F00104A2EB040ACAF391
:102350004F034FF6FF7A0AEA0424022B01DBFF2B1E
:1023600001DD02230024B1F806A04AEA040A4AEA81
:10237000030AA0F820A0B1F804A0B1F80CB04AEA12
:102380000B0AB1F802B04AEA0B0AB1F800B04AEA07
:102390000B0A4AF4006A4AEA05058583BDE8F08F16
:1023A0000021018041808180C18001814181818142
:1023B000C181072101827047002101804180818015
:1023C000C1800221816000218181704721B1028892
:1023D00042F04002028004E002884FF6BF731A40C8
:1023E0000280704721B1828B42F48062828304E0D4
:1023F000828B4FF6FF331A408283704702884FF278
:10240000FF731A40028002880A4302807047B1F5C8
:10241000804F04D1028842F48042028004E00288A6
:102420004BF6FF731A40028070474FF6FF629142ED
:1024300004D0028842F48072028004E002884FF6E1
:10244000FF631A400280704721B1828842F0040283
:10245000828004E082884FF6FB731A4082807047C6
:1024600021B1828842F01002828004E082884FF617
:10247000EF731A408280704730B500220023848BAE
:102480004FF240052C40848302240484828B0C8804
:10249000B4F5007F01D00C8814B94FF4807308E0C4
:1024A0000C88B4F5407F03D00C88B4F5807F00D150
:1024B00000238C888D892C434D882C431C4344F485
:1024C00000642243828330BD014688897047818140
:1024D000704721B1028842F40052028004E0028871
:1024E0004DF6FF731A4002807047018841F4805115
:1024F0000180704702460020012901D0108B00E0C6
:10250000908A70470146088A70471AB183880B4346
:10251000838002E083888B438380704730B500243A
:1025200000230C110125A540ABB2AAB185881D433B
:10253000858014E00030014000380040003C00403D
:10254000003401400050014000540140083802406E
:1025500040787D010024F40085889D43858030BD4E
:102560000246002013890B400BB1012000E000203F
:102570007047CA4302817047F0B50246002000242C
:102580000023002501F00F070126BE40B4B20B1155
:1025900001269E40B3B2968806EA030516892640B6
:1025A00016B10DB1012000E00020F0BD10B50022F1
:1025B00001F00F040123A3409AB2D343038110BD5D
:1025C000FE4A1070704730B1FC49096841F48071CF
:1025D000FA4A116005E0F949096821F48071F74A67
:1025E0001160704730B1F549096841F40071F34A50
:1025F000116005E0F149096821F40071EF4A1160AA
:10260000704730B1ED49096841F48061EB4A1160CF
:1026100005E0EA49096821F48061E84A11607047E1
:10262000E648006840F40060E44908607047E34809
:10263000006840F48050E14908607047DF4810307E
:10264000006800F0004028B1DD48DC49091D086041
:10265000DC4808607047D9481030006840F00040FE
:10266000D6491031086070470920D4490C310968F7
:1026700001F48031B1F5803F01D1012020E0CF4944
:102680000C31096801F0100109B1062018E0CB49AE
:102690000C31096801F4807109B1022010E0C749CA
:1026A0000C31096801F0EF0109B1072008E0C349C6
:1026B0000C31096801F0020109B1082000E009208D
:1026C000704708B509200090FFF7CEFF009002E0A8
:1026D000FFF7CAFF00909DF800000128F8D09DF890
:1026E000000008BD70B504460A460026092502B957
:1026F00009E0012A01D1160205E0022A01D11602E1
:1027000001E04FF44076FFF7DCFF0546092D2DD19F
:10271000AA481030006820F44070A84910310860C1
:1027200008460068304308600846006820F0F8005A
:1027300008600846006844F0020108439F491031D0
:1027400008600846006840F480300860FFF7B9FF71
:1027500005469A481030006820F002009749103171
:1027600008600846006820F0F8000860284670BD40
:1027700030B5024600250924FFF7A3FF044602B93D
:1027800009E0012A01D1150205E0022A01D1150252
:1027900001E04FF44075092C20D1884810300068C2
:1027A00020F44070854910310860084600682843CD
:1027B00008600846006840F00400086008460068A9
:1027C00040F480300860FFF77CFF04467B481030FF
:1027D000006820F00400794910310860204630BDBF
:1027E00030B5024600250924FFF76BFF044602B905
:1027F00009E0012A01D1150205E0022A01D11502E2
:1028000001E04FF44075092C20D16C48103000686D
:1028100020F4407069491031086008460068284378
:1028200008600846006840F0040008600846006838
:1028300040F480300860FFF744FF04465F481030E2
:10284000006820F004005D4910310860204630BD6A
:1028500030B5024600250924FFF733FF044602B9CC
:1028600009E0012A01D1150205E0022A01D1150271
:1028700001E04FF44075092C20D150481030006819
:1028800020F440704D491031086008460068284324
:1028900008600846006840F4004008600846006888
:1028A00040F480300860FFF70CFF044643481030C6
:1028B000006820F40040414910310860204630BDD6
:1028C00070B5064614461D460922FFF7FAFE024679
:1028D000092A1ED139481030006820F44070374969
:1028E000103108600846006840F4407008600846EF
:1028F000006840F00100086034607560FFF7E1FE99
:1029000002462E481030006820F001002B4910319B
:102910000860104670BD30B502460C460925FFF729
:10292000D0FE0546092D1DD124481030006820F442
:1029300040702249103108600846006840F4007079
:1029400008600846006840F0010008601460FFF766
:10295000B8FE054619481030006820F001001749FC
:1029600010310860284630BD30B502460C460925B6
:10297000FFF7A7FE0546092D1DD11048103000684D
:1029800020F440700D49103108600846006840F49A
:10299000807008600846006840F0010008601480FC
:1029A000FFF78FFE054605481030006820F0010053
:1029B000024910310860284630BD0000003C02404A
:1029C00023016745AB89EFCD30B502460C4609259A
:1029D000FFF777FE0546092D17D19B48006820F4C4
:1029E0004070994908600846006808600846006819
:1029F00040F0010008601470FFF763FE054692483E
:102A0000006820F0010090490860284630BD8E48DB
:102A1000001D006800F0010028B18C488A4908397F
:102A200008608B48086070478748001D006840F0C8
:102A300001008549091D0860704730B502460C4603
:102A40000925FFF73EFE0546092D10D13CB17E4811
:102A5000801D008890437C49891D088007E07A48E2
:102A6000801D008891B208437749891D088030BDD8
:102A700030B502460C460925FFF723FE0546092D11
:102A800010D13CB170480A30008890436E490A3139
:102A9000088007E06C480A30008891B208436A4910
:102AA0000A31088030BDFF21674AD21D127802F03A
:102AB0007F0140EA0102644BDB1D1A70704730B59C
:102AC00002460C460925FFF7FCFD0546092D10D1ED
:102AD00044B15D48801D008891B208435A49891D60
:102AE000088006E05848801D008890435649891D9B
:102AF000088030BD30B502460C460925FFF7E1FDE0
:102B00000546092D10D144B14F480A30008891B2D2
:102B100008434D490A31088006E04B480A300088D6
:102B2000904349490A31088030BD10B50246092456
:102B3000FFF7C7FD0446092C02D14348401D02702F
:102B400010BDF0B504460D46FF260927FFF7B9FD75
:102B50000746092F0BD13C48001D007800F00F06F6
:102B600045EA0600104320433749091D0870F0BDAF
:102B70003549091D097821F01001334A121D1170E1
:102B8000114609780143117070472F49091D0978D2
:102B900021F00C012C4A121D1170114609780143D5
:102BA0001170704700B509222748001D007840F0D9
:102BB00002002549091D0870FFF783FD02461046F3
:102BC00000BD2148001D0068C0F3471070471E4833
:102BD000801D008870471C480A30008870471A48DA
:102BE000801D0088704718480A3000887047002010
:102BF0001549491D0978AA2901D0012000E00020CB
:102C000070471148001D007800F00C00704729B192
:102C10000D4A126802430C4B1A6004E00A4A12681B
:102C20008243094B1A60704701460020064A121F72
:102C300012680A400AB1012000E0002070470249F2
:102C4000091F086070470000103C02403B2A190829
:102C50007F6E5D4C70B503460C4603E014F8015BD3
:102C600003F8015B151EA2F10102F7D170BD30B56A
:102C7000034601E003F8011B141EA2F10102F9D181
:102C800030BD10B504467A4951F824104A007949FC
:102C900051F824000021FFF7EAFF774951F824207A
:102CA00074490C3951F824000021FFF7E0FF01219D
:102CB00070480C30015510BD10B5014600230022AC
:102CC00007E06C4850F8210030F8120000B15B1C9E
:102CD000521C674850F821009042F2D864205843B3
:102CE000634C54F82140B0FBF4F0C0B210BD2DE9A4
:102CF000F04704460F460025A9465E480C30005DAB
:102D000020B95C4814380168204688471FB94FF045
:102D1000FF30BDE8F087594850F82400B7FBF0F6C3
:102D2000564850F82400B7FBF0F100FB117000B1D9
:102D3000761C4F4850F82400451E20E04D4850F8BE
:102D4000240030F8150010B909F1010901E04FF035
:102D50000009B14512D14FF0000808E0454850F88D
:102D6000240005EB080220F8126008F10108B045C4
:102D7000F4D3424850F824006843CAE76D1E002D82
:102D8000DCDA4FF0FF30C4E72DE9F04104460E468F
:102D900038480C30005D38B9364814380168204690
:102DA00088470120BDE8F081334850F82400B04244
:102DB00017D9324850F82400B6FBF0F12D4850F8EE
:102DC000240030F81120002507E00023294850F89E
:102DD00024004F1920F817306D1C9542F5DB0020B8
:102DE000E0E70220DEE770B505460C4604B970BD89
:102DF00020480C3850F82500261A31462846FFF79F
:102E0000C3FF00BFF3E770B504460E4631462046C7
:102E1000FFF76DFF0546681C08B9002070BD154816
:102E20000C3850F824002844F8E72DE9F041044616
:102E30000F46164631462046FFF759FF0546681CE7
:102E400010B90020BDE8F0810A490C3951F824106E
:102E5000481932463946FFF7FDFE39462046FFF74E
:102E6000C2FF04480C3850F824002844EAE7000068
:102E7000F45F00084C0000200C60000800600008AF
:102E800070B50446002574B9FDF712FF40B1012565
:102E9000FDF7E4FDFF20FDF7DBFDFDF7E4FD01E0BC
:102EA00025F0010501E0012500BF00BF0DB10120A3
:102EB00070BD0020FCE70146002070472DE9F0417D
:102EC00005460E4617461C464FF0000814B904206C
:102ED000BDE8F08185B9E2B239463046FDF7AEFF74
:102EE0008046B8F1000F06D0FDF7B8FDFF20FDF7D2
:102EF000AFFDFDF7B8FD02E04FF0010800BF00BFD5
:102F0000B8F1000F01D10020E2E70120E0E72DE950
:102F1000F04105460E4617461C464FF0000814B90E
:102F20000420BDE8F08135B9E2B239463046FDF7FC
:102F3000CAFF804602E04FF0010800BF00BFB8F1B1
:102F4000000F01D10020ECE70120EAE72DE9F04174
:102F500006460F46144606BB8FB1012F0BD0022F39
:102F600002D0032F18D103E04FF40070208013E04B
:102F70000820206010E0FDF760FE20600CE00020DB
:102F800010490860FDF77CFD08B9002500E0012527
:102F900001200C49086000BF00E001252846BDE87B
:102FA000F0810020704710B5044621460020FFF74D
:102FB0002AFF10BD10B5044621460020FFF713FF7D
:102FC00010BD00008C82404270B503460C4603E001
:102FD00014F8015B03F8015B151EA2F10102F7D1A1
:102FE00070BD30B5034601E003F8011B141EA2F1C9
:102FF0000102F9D130BDF0B503461C460D46002054
:1030000000BF161EA2F1010207D014F8017B15F8CB
:1030100001CBA7EB0C06301EF3D0F0BD024600E05A
:10302000521C107810B110788842F9D1107870478E
:1030300070B504462079F8B1E56A607801232A4624
:1030400004F13001FFF763FF08B1012070BD0020DB
:103050002071206A281AA16988420DD2E67809E019
:10306000A0690544607801232A4604F13001FFF786
:103070004EFF761E022EF3D20020E7E770B504461D
:103080000D46E06AA84210D02046FFF7D1FF08B1F4
:10309000012070BD607801232A4604F13001FFF75A
:1030A0000DFF08B10120F4E7E5620020F1E770B5FB
:1030B00004462046FFF7BCFF0546002D59D1207875
:1030C00003284FD1607901284CD14202002104F13C
:1030D0003000FFF786FF552184F82E12AA2184F8CC
:1030E0002F12522084F830005221312001556121E5
:1030F00032200155412133200155722184F81412E8
:1031000084F81512412184F81612612184F81712EF
:10311000217C84F81812208A010A84F81912206987
:10312000010C84F81A122069010E84F81B12217B0D
:1031300084F81C12A089010A84F81D12E068010CB1
:1031400084F81E12E068010E84F81F12E069401C2A
:10315000E0626078012304F13001E26AFFF7D7FEF4
:1031600000206071607800221146FFF7EFFE00B189
:103170000125284670BD0246891E5069801E88427E
:1031800001D8002070479378906A01FB0300F9E7AB
:103190002DE9F04105460C46022C02D36869A04295
:1031A00002D80120BDE8F0812878012804D0022847
:1031B0002CD003285AD13DE0274607EB5707286A51
:1031C00000EB57212846FFF759FF00B150E0C7F345
:1031D000080105F1300010F801807F1C286A00EB1F
:1031E00057212846FFF74AFF00B141E0C7F3080125
:1031F00005F13000405C48EA002804F0010010B1FD
:103200004FEA1810CEE7C8F30B00CBE7286A00EBB3
:1032100014212846FFF732FF00B129E040F2FF10E9
:1032200000EA440105F130000E183078717840EA68
:103230000120B7E7286A00EBD4112846FFF71EFFEC
:1032400000B115E040F2FF1000EA840105F1300002
:103250000E18F0780006B17840EA0140717840EA33
:1032600001203178084320F070409BE7012099E766
:1032700000BF4FF0FF3095E72DE9F04705460E46B9
:103280001746022E02D36869B04202D84FF00208F6
:103290008AE02878012804D0022841D003287DD173
:1032A00054E0B14609EB5909286A00EB5921284638
:1032B000FFF7E4FE8046B8F1000F00D071E0C9F3DB
:1032C000080105F130000C1806F0010020B1F9B238
:1032D000207861F31F1000E03846207009F10109E1
:1032E00001202871286A00EB59212846FFF7C6FE05
:1032F0008046B8F1000F00D053E0C9F3080105F192
:1033000030000C1806F0010010B1C7F3071005E0FB
:10331000207800F0F000C7F303210843207040E05C
:10332000286A00EB16212846FFF7A8FE8046B8F170
:10333000000F00D035E040F2FF1000EA460105F131
:1033400030000C182770380A60702AE0286A00EBF9
:10335000D6112846FFF792FE8046B8F1000F00D044
:103360001FE040F2FF1000EA860105F130000C1862
:10337000E0780006A17840EA0140617840EA012047
:103380002178084300F0704007432770380A6070C6
:10339000380CA070380EE07003E0FFE74FF0020831
:1033A00000BF00BF012028714046BDE8F0872DE92D
:1033B000F04104460E46022E02D36069B04201D8A5
:1033C000022727E0002721E031462046FFF7E0FEF4
:1033D000054605B91DE0012D01D1022719E0681C41
:1033E00008B9012715E0002231462046FFF744FFC7
:1033F000074607B10DE02069401C30B12069401C30
:103400002061607940F0010060712E466069B04231
:10341000DAD800BF3846BDE8F0812DE9F047044610
:103420008946B9F1000F06D1E76817B16069B84263
:1034300015D8012713E049462046FFF7A9FE0646A6
:10344000022E02D20120BDE8F087701C08B9304678
:10345000F9E76069B04201D93046F4E74F463D468E
:1034600000BF6D1C6069A84204D80225BD4201D985
:103470000020E8E729462046FFF78AFE064606B9FF
:1034800009E0701C08B1012E01D13046DBE7BD42D6
:10349000E7D10020D7E700BF6FF0704229462046F1
:1034A000FFF7EAFE8046B8F1000F08D1B9F1000F2E
:1034B00005D02A4649462046FFF7DEFE8046B8F191
:1034C000000F0BD1E5602069401C78B12069401ED7
:1034D0002061607940F00100607107E0B8F1010FF0
:1034E00002D14FF0FF3000E0012005462846AAE750
:1034F00070B503460D46586A021D680A1E68B67804
:10350000B0FBF6F400BF02CA09B9002070BD8C42BE
:1035100000D202E0641A121DF5E700BF10682044D3
:10352000F4E72DE9F04104460E46E680A568012D3A
:1035300003D020684069A84202D80220BDE8F0818B
:103540002DB920680078032801D12068456A45B963
:1035500020680089B04201D80220EFE72068476A5E
:103560001EE0206880784FEA001812E029462068A3
:10357000FFF70EFE0546681C08B90120DEE7022DA4
:1035800003D320684069A84201D80220D6E7A6EB01
:1035900008064645EAD229462068FFF7ECFD0746B3
:1035A000E5600FB90220C9E707EB1610206120681B
:1035B000303006F00F0100EB411060610020BDE7E4
:1035C0002DE9F04104468846E088461CB0B208B1B7
:1035D000206910B90420BDE8F08106F00F00002832
:1035E0006CD12069401C2061E06828B920680089FE
:1035F000B04263D80420EEE720688078401E00EADD
:10360000161000285AD1E1682068FFF7C1FD054671
:10361000012D01D80220DEE7681C08B90120DAE795
:1036200020684069A84243D8B8F1000F01D10420B6
:10363000D1E7E1682068FFF7F0FE05460DB90720E5
:10364000C9E7012D01D10220C5E7681C08B9012096
:10365000C1E72068FFF7ECFC08B10120BBE7216857
:1036600001F130004FF400720021FFF7BAFC294647
:103670002068FFF780FD2168C86200270EE0012066
:10368000216808712068FFF7D3FC08B10120A2E788
:103690002068C06A401C2168C8627F1C206880784E
:1036A000B842ECD82068C06AC01B2168C86200BF5D
:1036B000E56029462068FFF75EFD2061E68020680E
:1036C000303006F00F0100EB41106061002082E70E
:1036D0002DE9F04104460E4600212046FFF721FF68
:1036E0000546EDB9002700BF21692068FFF7C6FC39
:1036F000054605B113E060690078E52802D06069ED
:10370000007820B9781C0746B04201D107E00027B5
:1037100001212046FFF754FF0546002DE4D000BFED
:10372000042D00D107252846BDE8F08110B50246DA
:103730008C7ECB7E44EA03201378032B05D10C7DCD
:103740004B7D44EA032340EA034010BD81760B0A17
:10375000C3760A0C02750B0E437570472DE9F041D4
:10376000044600212046FFF7DCFE054615B1284639
:10377000BDE8F08100BF21692068FFF77FFC0546A6
:1037800005B116E0666937780FB9042511E0F07AC3
:1037900000F0080030B90B223046A169FFF72BFC7E
:1037A00000B906E000212046FFF70AFF0546002D7C
:1037B000E1D000BF2846DBE72DE9F0470446894603
:1037C000042526E021692068FFF758FC054605B16D
:1037D00022E0D4F8148098F800600EB904251BE0AC
:1037E00098F80B0000F03F07E52E0BD02E2E09D0E5
:1037F0000F2F07D0082F01D1012000E000204845FD
:1038000000D109E000212046FFF7DAFE054605B1A8
:1038100002E020690028D5D100BF0DB10020206151
:103820002846BDE8F08770B5044601212046FFF721
:103830004FFF054695B921692068FFF71FFC054633
:1038400065B9202200216069FFF7CBFB0B22D4E988
:103850000501FFF7B9FB012021680871284670BDFA
:1038600070B50446E1882046FFF75BFE054685B942
:1038700021692068FFF702FC054655B92022002186
:103880006069FFF7AEFBE5206169087001202168DF
:103890000871284670BDF0B5044601F1090220699F
:1038A00000282DD06069002310E01E465B1C855D5A
:1038B000202D00D10AE0052D00D1E525092B02D1EC
:1038C0002E2602F8016B02F8015B00BF0B2BECD334
:1038D000C67A0E72C67F3706867F47EA0647467F5E
:1038E00047EA0626077F3E430E60077E467E47EA8C
:1038F00006268E80877DC67D47EA0626CE8000BFDD
:1039000000201070F0BD2DE9F35F8A46DAF80070F0
:1039100000E07F1C38782F28FBD038785C28F8D05E
:10392000009886690B2220213046FFF75AFB0025BC
:10393000A946AB464FF0080800BF58460BF1010BF3
:103940003C5C202C03DD2F2C01D05C2C00D134E01A
:103950002E2C01D0C1450ED3B8F1080F01D12E2C69
:1039600002D00620BDE8FC9F4FF008094FF00B087D
:10397000A806050EE1E7802C03DB45F003050620D1
:10398000F0E72146FCA0FFF749FB08B10620E9E774
:10399000412C04DB5A2C02DC45F0020508E0612CC6
:1039A00006DB7A2C04DC45F00105A4F12000C4B24A
:1039B000484609F101093454BFE700BF07EB0B008B
:1039C000CAF80000202C01DC042000E0002004469E
:1039D000B9F1000F01D10620C4E73078E52801D104
:1039E00005203070B8F1080F01D1A806050E05F0CA
:1039F0000300012801D144F0100405F00C00042854
:103A000001D144F00804F4720020ABE72DE9F34142
:103A10000446019800782F2803D0019800785C288C
:103A200002D10198401C01900020A060019800780C
:103A3000202807D200212046FFF773FD054600200D
:103A4000606128E000BF01A92046FFF75CFF054642
:103A500005B11FE02046FFF781FE0546A069C67A42
:103A60003DB1042D04D100BF06F0040000B90525C6
:103A700010E006F0040000B10CE06769F87A00F08D
:103A8000100008B9052505E039462068FFF74EFE0D
:103A9000A060D8E700BF2846BDE8FC8170B50246AB
:103AA0004FF0FF301568E5B1116800E0491C0D7852
:103AB000212D02D30D783A2DF8D10D783A2D0FD162
:103AC000146814F8015BA5F130030A2B07D28C426D
:103AD00005D1032B03D218464D1C2946156070BD35
:103AE000002000BFFBE770B504460D4600202071A2
:103AF000401EE06229462046FFF7C0FA08B10320C5
:103B000070BD94F82E1294F82F0241EA00204AF674
:103B10005521884201D00220F2E794F8690001069D
:103B200094F8680041EA004194F8670041EA0020F7
:103B300094F86610084320F07F409349884201D1F1
:103B40000020DDE794F88500010694F8840041EA3E
:103B5000004194F8830041EA002094F88210084361
:103B600020F07F408849884201D10020C8E7012029
:103B7000C6E72DE9F74F88B0002108980160099841
:103B8000FFF78CFF07900798002803DA0B200BB093
:103B9000BDE8F08F7D49079851F820400CB90C2002
:103BA000F5E708980460207878B16078FFF783F92A
:103BB000804608F0010040B90A9820B108F00400DE
:103BC00008B10A20E3E70020E1E700202070079811
:103BD00060706078FFF754F9804608F0010008B182
:103BE0000320D4E70A9820B108F0040008B10A20A5
:103BF000CDE7002739462046FFF775FF0546012D22
:103C000001D06DBB2CE0002614E004F5F77101EB48
:103C10000610017951B1C17A0A06817A42EA01425D
:103C2000417A42EA0121027A114300E000214DF875
:103C30002610761C042EE8D3002606B1761E00BF9F
:103C40005DF8267027B139462046FFF74CFF00E0AB
:103C5000022005461DB1701C06460428F0D300BFA3
:103C6000032D01D1012092E70DB10D208FE73B20FC
:103C7000015D94F83C0041EA0020B0F5007F01D0DE
:103C80000D2084E74620015D94F8470041EA0029B1
:103C9000B9F1000F0ED194F85700010694F85600C0
:103CA00041EA004194F8550041EA002094F854108C
:103CB00040EA0109C4F818904020005DE070E07807
:103CC000012804D0E078022801D00D205FE7E078D9
:103CD00009FB00F93D20005DA070A07818B1A07824
:103CE000411E084008B10D2051E74120015D94F8C4
:103CF000420041EA00202081207A00F00F0008B144
:103D00000D2044E74320015D94F8440041EA002B74
:103D1000BBF1000F0ED194F85300010694F8520045
:103D200041EA004194F8510041EA002094F8501013
:103D300040EA010B3E20015D94F83F0041EA00207B
:103D40000490049808B90D2021E70498484421897B
:103D500000EB111006900698834501D20D2016E75E
:103D60000698ABEB0000A178B0FBF1FABAF1000FB6
:103D70000ED10D200BE70000222A2B2C3A3B3C3DB4
:103D80003E3F5B5D7C7F00004641540040B2012015
:103D9000012540F6F670824500D302254FF6F670F5
:103DA000824500D303250AF102006061E7610498AF
:103DB0003844206206983844A062032D16D1208929
:103DC00008B10D20E3E694F85F00010694F85E0068
:103DD00041EA004194F85D0041EA002094F85C104B
:103DE0000843606260698000059014E0208908B98A
:103DF0000D20CCE6206A48446062022D02D1606941
:103E0000400007E0207D00F00100616901EB410105
:103E100000EB51000590A169059800F2FF10B1EB8D
:103E2000502F01D20D20B2E64FF0FF302061E0604C
:103E300080206071032D5AD194F8601094F86100CD
:103E400041EA0020012852D1791C2046FFF716F9DB
:103E5000E8BB0020607194F82E1294F82F0241EA1A
:103E600000204AF65521884241D13320005D0106E9
:103E70003220005D41EA00413120005D41EA00202E
:103E800094F830100843FE49884230D194F8170264
:103E9000010694F8160241EA004194F8150241EA3D
:103EA000002094F814120843F64988421FD194F870
:103EB0001B02010694F81A0241EA004194F8190223
:103EC00041EA002094F818120843206100E00EE057
:103ED00094F81F02010694F81E0241EA004194F88A
:103EE0001D0241EA002094F81C120843E06025708E
:103EF000E5480088401C80B2E3490880E08000204B
:103F000045E670B505462C464CB1206838B12068AE
:103F1000007820B12068C088A188884201D009209B
:103F200070BD21684878FEF7C6FF00F0010008B1B7
:103F30000320F5E70020F3E7F7B582B016460398B3
:103F4000019001A8FFF7AAFD0546002D02DA0B201B
:103F500005B0F0BDCD4850F825400CB100202070D0
:103F6000029810B1002002990870C849029841F8DF
:103F70002500029808B1012E01D00020E8E70022B8
:103F800003A902A8FFF7F5FD07463846E0E72DE94B
:103F9000F7438AB0054616461DB909200DB0BDE8A5
:103FA000F0830020286006F01F0626F001020BA90E
:103FB00003A8FFF7DEFD0746002F7DD1CDF824D002
:103FC00003A80B99FFF722FD0746089C0FB904B917
:103FD000062706F01C00002851D04FB1042F03D152
:103FE00003A8FFF720FC074646F00806089C09E0F6
:103FF000E07A00F0110008B1072703E006F00400A2
:1040000000B10827002F39D106F00800002835D06C
:10401000FEF7C7FF804684F80E804FEA1821E1734F
:104020004FEA184121744FEA186161740020E07270
:10403000207700216177A177E17721460398FFF788
:1040400075FB814600212046FFF780FB0120039984
:104050000871B9F1000F11D00398D0F82C804946AF
:104060000398FFF7A4F9074647B9A9F1010003999E
:10407000C86041460398FFF701F807460EE06FB9A4
:10408000E07A00F0100008B1042707E006F0020013
:1040900020B1E07A00F0010000B1072747B906F02F
:1040A000080008B146F020060398C06AE8612C6257
:1040B00017B9AE71002000E019E0E87121460398BD
:1040C000FFF734FB2861E07F0106A07F41EA004151
:1040D000607F41EA0020217F0843E8600020A8605B
:1040E000A8616862039828602868C088A88038465C
:1040F00054E72DE9FF4F83B0044615469A46DDF894
:1041000010B00020CAF800002046FFF7FAFE029027
:10411000029818B1029807B0BDE8F08FE07908B1B5
:10412000E079F8E7A07900F0010008B90720F2E78C
:10413000D4E90210401A00900098854200D9009DF1
:10414000B3E02089C0F30800002876D12068807889
:10415000401EA16800EA512000F0FF09B9F1000FEC
:104160001FD1A06810B9206901900CE0606A28B1E5
:104170002046A168FFF7BCF9019004E0616920685E
:10418000FFF706F801900198022802D20220E071A0
:10419000C1E70198401C10B90120E071BBE701980C
:1041A000606161692068FEF7E6FF064616B90220E5
:1041B000E071B0E74E444FEA5528B8F1000F29D01E
:1041C00009EB080021688978884203D92068807843
:1041D000A0EB090821684878434632465946FEF765
:1041E0006DFE10B10120E07195E7A07900F040006C
:1041F00068B1A069801B404509D2A169891B0BEBFE
:1042000041204FF4007204F12801FEF7DDFE4FEA71
:10421000482740E0A069B04220D0A07900F04000DB
:1042200080B121684878012304F12801A269FEF7D2
:104230006EFE18B10120E0716DE710E0A07920F06A
:104240004000A071216848780123324604F128011A
:10425000FEF734FE10B10120E0715CE7A661208911
:10426000C0F30800C0F50077AF4200D92F4620897F
:10427000C0F3080204F1280011183A46584607E036
:1042800052526141727241615C00002040B20120D3
:10429000FEF79AFE00BFBB44A0683844A060DAF87D
:1042A00000003844CAF80000ED1B002D7FF449AF30
:1042B000002030E72DE9FF4F83B0044615469B46AA
:1042C000049801900020CBF800002046FFF719FE6B
:1042D0000290029818B1029807B0BDE8F08FE0791B
:1042E00008B1E079F8E7A07900F0020008B90720EA
:1042F000F2E7A0682844A168884200D20025BEE009
:104300002089C0F3080000287DD120688078401EF5
:10431000A16800EA512000F0FF0ABAF1000F26D18F
:10432000A06838B9276997B900212068FFF775F8A8
:1043300007460CE0606A28B12046A168FFF7D8F86C
:10434000074604E061692068FFF767F8074607B988
:1043500098E0012F02D10220E071BDE7781C10B96E
:104360000120E071B8E76761206900B92761A07991
:1043700000F0400078B121684878012304F1280159
:10438000A269FEF7C4FD10B10120E071A4E7A07995
:1043900020F04000A07161692068FEF7ECFE06463F
:1043A00016B90220E07197E756444FEA5529B9F152
:1043B000000F2CD00AEB090021688978884203D9C4
:1043C00020688078A0EB0A09216848784B4632467D
:1043D0000199FEF79CFD10B10120E0717CE7A06916
:1043E000801B48450ED2A069801B019A02EB402138
:1043F0004FF4007204F12800FEF7E6FDA07920F0EA
:104400004000A07100E016E04FEA49282AE0A069C8
:10441000B0420FD0D4E9020188420BD2216848781B
:104420000123324604F12801FEF748FD10B10120B6
:10443000E07151E7A6612089C0F30800C0F500785B
:10444000A84500D9A8462189C1F3080204F1280132
:10445000501842460199FEF7B7FDA07940F04000A0
:10446000A07100BF019840440190A0684044A06042
:10447000DBF800004044CBF80000A5EB0805002D58
:104480007FF43EAF00BFD4E90201884201D9A068A1
:10449000E060A07940F02000A07100201CE72DE929
:1044A000F04104462046FFF72CFD0746002F4CD173
:1044B000A07900F02000002847D0A07900F040004B
:1044C00078B121684878012304F12801A269FEF738
:1044D0001EFD10B10120BDE8F081A07920F0400060
:1044E000A071E1692068FEF7C9FD0746002F2CD1B5
:1044F000256AE87A40F02000E872207B2877A089BE
:10450000010A6977E068010CA977E068010EE97794
:1045100028462169FFF71AF9FEF743FD0646AE75F6
:10452000310AE975310C2976310E69760020A874BC
:104530000021E974A07920F02000A07101202168F9
:1045400008712068FEF7B3FD07463846C3E770B52B
:1045500005462846FFF7A3FF044644B92846FFF75F
:10456000D0FC04460CB900202860204670BD2046CF
:10457000FCE72DE9FE4F04460D462046FFF7C1FC3F
:104580000290029810B10298BDE8FE8FE07908B160
:10459000E079F9E7606A002871D0681C00283BD1F7
:1045A000D4F8248058F804AB4FF0020926693EB3D2
:1045B00000BF00964FF0000B09F1020900BF019601
:1045C0000BF1010B31462068FEF7E2FD0646012E95
:1045D00002D80220E071D7E7701C10B90120E07109
:1045E000D2E70198401C8642E9D0D14504D848F86A
:1045F00004BB009848F8040B20684069B042D8D842
:10460000606AC0F80090D14503D80020C8F80000C7
:1046100047E01120029044E0E068A84200D2E5683B
:10462000A560002D3DD0691E2046FEF761FF606148
:1046300061692068FEF79FFD074617B90220E07107
:10464000A2E720688078401E691E00EA51200744D6
:104650002089C0F3080020B3A069B84221D0A07916
:1046600000F0400080B121684878012304F128015E
:10467000A269FEF74CFC18B10120E07184E711E05B
:10468000A07920F04000A0712168487801233A46C3
:1046900004F12801FEF712FC10B10120E07173E76C
:1046A000A761ABE0E068A84204D2A07900F0020064
:1046B00000B9E568D4F808904FF00008C4F8088005
:1046C000002D67D0206880784702B9F1000F11D023
:1046D000681EB0FBF7F1A9F10100B0FBF7F08142D1
:1046E00008D3A9F10100791E8843A060A0682D1AA3
:1046F000666912E026697EB900212068FEF78DFE0A
:104700000646012E02D10220E0713DE7701C10B96F
:104710000120E07138E726616661C6B323E0A07925
:1047200000F0020038B131462068FEF776FE0646FA
:1047300036B93D4619E031462068FEF729FD0646A8
:10474000701C10B90120E0711EE7012E03D920680A
:104750004069B04202D80220E07115E76661A068A6
:104760003844A060ED1BBD42D9D800BFA0682844E2
:10477000A060C5F3080050B131462068FEF7FBFC8D
:104780008046B8F1000F03D10220E071FCE601E0A1
:1047900008EB55282089C0F3080020B3A0694045E4
:1047A00021D0A07900F0400078B121684878012339
:1047B00004F12801A269FEF7AAFB10B10120E07103
:1047C000E2E6A07920F04000A0712168487801233A
:1047D000424604F12801FEF771FB10B10120E0719F
:1047E000D2E6C4F81880D4E90201884205D9A0684D
:1047F000E060A07940F02000A07100BF0298C3E6FD
:1048000033B585B0044614B9092007B030BD002285
:1048100006A904A8FFF7ADF905461DBB0498206062
:1048200001A8A06120460699FFF7F0F80546B5B942
:10483000606958B16069C07A00F0100028B1616900
:104840000498FEF773FFA06000E005253DB90498C9
:10485000C088A08000212046FEF763FE0546042D97
:1048600000D105250DB1002020602846CDE770B5A8
:1048700004462046FFF745FB05460DB900202060A1
:10488000284670BDFEB505460E462846FFF739FBA3
:1048900004460CBB2EB900212846FEF742FE044612
:1048A0001AE0C5F818D000212846FEF785FF044617
:1048B000042C02D10020286100246CB9314628461E
:1048C000FEF7E9FF00212846FEF77AFE0446042C95
:1048D00002D10020286100242046FEBD33B58BB0F4
:1048E0000D4600220BA904A8FFF743F9044684B93A
:1048F00001A80A9004A80B99FFF788F8044644B968
:10490000099828B12DB1294604A8FEF7C4FF00E09C
:10491000062420460DB030BD2DE9F74F82B08A46FF
:10492000002202A90498FFF724F901900498046872
:10493000019800286DD1D4E90410801E814203D86B
:104940002069CAF8000064E094F800B00026BBF1CA
:10495000010F1CD1022700BF39462046FEF718FC84
:10496000804608F1010010B9012001900EE0B8F175
:10497000010F02D10220019008E0B8F1000F00D130
:10498000761C781C074661698842E5D33AE067697E
:10499000206A00904FF00009002500BFB9F1000F18
:1049A0000ED10098421C014620460092FEF766FB9D
:1049B0000190019800B124E004F130054FF4007932
:1049C000BBF1020F09D12878697840EA012000B9CB
:1049D000761CAD1CA9F1020910E0E8780006A97860
:1049E00040EA0140697840EA01202978084320F034
:1049F000704000B9761C2D1DA9F10409781E071E10
:104A0000CCD100BF2661607940F001006071CAF826
:104A10000060019805B0BDE8F08F70B504462046EF
:104A2000FFF76FFA054645B9E07908B1E57904E08A
:104A3000A07900F0020000B90725002D47D1D4E984
:104A40000210884241D9A068E060A07940F02000BF
:104A5000A071A06838B921692068FEF7A8FC054656
:104A6000002020611DE061692068FEF791FB064689
:104A70000025701C00B90125012E00D1022585B941
:104A800020684069B0420CD96FF0704261692068BB
:104A9000FEF7F2FB054625B931462068FEF787FC94
:104AA000054695B9A07900F0400070B121684878BA
:104AB000012304F12801A269FEF729FA08B10125B2
:104AC00003E0A07920F04000A07105B1E57128460F
:104AD00070BD71B591B0012211A90AA8FFF749F87C
:104AE0000446002C47D1CDF840D00AA81199FEF712
:104AF0008DFF044600BF002C3DD10F9E0EB9062449
:104B000004E0F07A00F0010000B1072431460A9871
:104B1000FEF70CFE0546ECB9F07A00F01000C8B1C3
:104B2000022D01D2022415E01C220AA903A8FEF7D7
:104B30004BFA0595022103A8FEF7F3FC04464CB995
:104B4000002103A8FEF738FE044604B90724042C0C
:104B500000D100247CB90AA8FEF782FE044654B9AD
:104B600025B129460A98FEF722FC04461CB90A988A
:104B7000FEF79DFA0446204612B070BD2DE9F147BC
:104B80008BB0FEF70EFA064601220BA904A8FEF729
:104B9000F0FF0546002D7DD101A80A9004A80B99CD
:104BA000FEF734FF054605B9082500BF042DF2D1F4
:104BB00000210498FEF731FC0746002507B90725B8
:104BC000012F00D10225781C00B901251DB90498D8
:104BD000FEF72EFA0546002D5AD139460498FEF705
:104BE000CAFA8146049800F130044FF400720021A3
:104BF0002046FEF7F6F90B2220212046FEF7F1F9B8
:104C00002E2020701020E072A675310AE175310C5B
:104C10002176310E617639462046FEF797FD202237
:104C2000214604F12000FEF7CFF92E2084F8210060
:104C3000DDF818A004980078032804D10498406A8D
:104C4000504500D1AA46514604F12000FEF77EFDF2
:104C5000049890F8028017E00498C0F82C9009F1AD
:104C600001090120049908710498FEF7E1F905464D
:104C700005B10CE04FF4007200212046FEF7B1F9B7
:104C8000A8F1010000F0FF08B8F1000FE4D100BF67
:104C90002DB900E01EE004A8FEF7C5FD054625B1CC
:104CA00039460498FEF783FB14E0099C1020E0725B
:104CB000A675310AE175310C2176310E61763946DF
:104CC0002046FEF743FD0120049908710498FEF781
:104CD000EEF9054628460CB0BDE8F087F7B58AB076
:104CE0000F46144601220AA903A8FEF742FF064612
:104CF000DEB9CDF824D003A80A99FEF787FE064650
:104D000000BF96B9089D0DB906260EE004F02704F1
:104D100007EA0400E97AA1430843E87201200399F5
:104D200008710398FEF7C3F9064630460DB0F0BD92
:104D300073B58AB00D4601220AA903A8FEF719FF30
:104D40000646EEB9CDF824D003A80A99FEF75EFE18
:104D5000064600BFA6B9089C0CB9062610E0A87943
:104D6000A075E8880112E17528792076A8880112DB
:104D700061760120039908710398FEF798F90646B9
:104D800030460CB070BDF3B597B0012217A910A83A
:104D9000FEF7EFFE0446002C0ED110980990CDF8D6
:104DA00058D010A81799FEF731FE044600BF002C1A
:104DB00074D1159808B9042470E0159800F10B011E
:104DC000152203A8FEF700F91C2210A909A8FEF776
:104DD000FBF818A8FEF762FE002805DB09A8189961
:104DE000FEF714FE044600E00B2404B90824042C4A
:104DF00054D109A8FEF717FD0446002C4ED10E9D94
:104E000013220DF10E0105F10D00FEF7DDF89DF8FE
:104E10000C0040F02000E8720120109908710B99F5
:104E20001298884230D0E87A00F0100060B329462A
:104E30001098FEF77BFC074639461098FEF79BF961
:104E400006460EB902241FE031461098FEF716F907
:104E50000446109800F15005B4B968782E2813D193
:104E600010980078032806D110990B98496A884257
:104E700001D1002000E00B98064631462846FEF797
:104E800065FC01201099087144B910A8FEF7E8FCF0
:104E900004461CB91098FEF70AF90446204619B0DA
:104EA000F0BD2DE9F74187B00D469046002207A9D5
:104EB0006846FEF75EFE044624BB1DB30020029048
:104EC00000216846FEF72DFB0446DCB90121684647
:104ED000FEF772FC044684B90B2228460599FEF7BA
:104EE00073F80B2700BF0020E85507B904E0781ECF
:104EF0000746285C2028F6D000BF042C02D10020F1
:104F00002870002444BBB8F1000F25D0009A104649
:104F1000D169FEF7B3F80446F4B900980078032885
:104F200001D1432000E0272006460098303030446D
:104F3000C0780106009830303044807841EA004162
:104F4000009830303044407841EA002000993031F8
:104F5000895D0843C8F8000020460AB0BDE8F0812A
:104F60002DE9F1438AB001220AA903A8FEF701FE48
:104F700007461FB138460BB0BDE8F08300208DF81E
:104F80000000002600E0761C0A98805D0028FAD117
:104F900000E0761E26B1701E0A99085C2028F8D021
:104FA000002E3BD04FF00008C14600BF484609F133
:104FB00001090A990D5C612D04DB7A2D02DCA5F153
:104FC000200085B2802D00DB00255DB12946FDA0C3
:104FD000FEF724F830B9FF2D01DD0A2000E00B2098
:104FE000404501D80620C6E7FF2D05DD2A124046C0
:104FF00008F101080DF80020EAB2404608F1010866
:105000000DF80020B145D1D305E02022404608F13B
:1050100001080DF80020B8F10B0FF6D30020059021
:10502000002103A8FEF77DFA0746002F55D1012184
:1050300003A8FEF7C1FB07460FBB9DF8000098B11F
:105040000B2269460898FDF7BFFFFDF7AAFF04464B
:1050500008998C75210A0898C175210C0898017669
:10506000210E0898417602E0E52008990870012099
:10507000039908710398FEF71AF807462DE0042FEC
:105080002BD100279DF8000038B3012103A8FEF7BB
:105090001FFB07460FBB202200210898FDF7A1FF48
:1050A0000B2269460898FDF78FFF08200899C872FF
:1050B000FDF777FF044608998C75210A0898C17599
:1050C000210C08980176210E089841760120039959
:1050D00008710398FDF7EBFF074638464BE72DE9CB
:1050E000F74F90B0914610A8FEF7D8FC0F900F989C
:1050F000002803DA0B2013B0BDE8F08F11980128C7
:1051000001DD1320F7E7A9F1010000EA090008B169
:105110001320F0E7AF490F9851F820B0BBF1000F12
:1051200001D10C20E7E700208BF800000F98C0B2F7
:105130000C9000200B900C98FDF7A2FE01900198B6
:1051400000F0010008B10320D5E7019800F0040049
:1051500008B10A20CFE700BF04AA01210C98FDF78F
:10516000F5FE10B90498802801D20120C3E71198F8
:1051700008B1002000E03F2080460498A0EB080022
:105180000490B9F1000F13D14FF4FA610498B0FB09
:10519000F1F00A904FF0000A01E00AF1010A8E488E
:1051A00030F81A100A988142F7D88C4830F81A90D3
:1051B0004FEA5929B9F1000F01D14FF00109B9F1B6
:1051C000800F01D94FF080090498B0FBF9F7012551
:1051D00040F6F670874200D302254FF6F6708742FC
:1051E00000D30325032D0AD1082000EB870000F22D
:1051F000FF10460A202003900020029011E0012DAC
:1052000005D107EB4700401C4008C01C01E07800B6
:10521000001D064606F2FF10460A012003902020DA
:1052200002900398404407900798304406900299F2
:1052300006980844059005984844A0EB0800049996
:10524000884201D90E2056E709AA03210C98FDF7E0
:105250007DFE28B9099818B10998B0F5004F01D919
:1052600001200990099905980844401E491E884369
:10527000099009990598081A0990032D08D10999F0
:10528000039808440390099907980844079001E09F
:1052900009980644DDE90301081A811B0298081ADF
:1052A000B0FBF9F7022D03D140F6F670874205D323
:1052B000032D05D14FF6F670874201D20E201AE772
:1052C000032D02D10C200D9010E0012D06D1049881
:1052D000B0F5803F02D201200D9007E00498B0F5B0
:1052E000803F01D2042000E006200D9000BF1198FD
:1052F00010B1F0200E9044E04FF4007200210BF149
:105300003000FDF76EFE0BF5F77401206070A070A1
:105310000020E0700D982071FE20607104984044D8
:105320003F21B0FBF1F0FF21B0FBF1F009903F21EC
:10533000099841EA9000A0710998E0713F2020721D
:1053400000216172A172E172049820730498010A2D
:1053500061730498010CA1730498010EE173552147
:105360008BF82E12AA218BF82F12012300220BF1A9
:1053700030010C98FDF7CBFD08B10120BBE6F82009
:105380000E900BF130044FF4007200212046FDF71F
:1053900028FE0B2212A12046FDF716FE4FF4007ADC
:1053A00084F80BA04FEA1A21217384F80D9003981A
:1053B000A0730398010AE17301202074032D15D115
:1053C000002015E0222A2B2C2E3A3B3C3D3E3F5B31
:1053D0005D7C7F0040B20120186000082E6000084C
:1053E000EBFE904D53444F53352E30004FF4007078
:1053F000824684F811A04FEA1A21A1740498B0F5EE
:10540000803F05D20498E0740498010A217510E0E9
:10541000049884F820000498C0F307212120015546
:105420000498C0F30741222001550498010E23205F
:1054300001550E9860753F20207600216176FF208F
:10544000A076E17684F81C804FEA182161774FEA54
:105450001841A1774FEA1861E177FDF7A2FD0990A5
:10546000032D3ED1099884F843000998C0F3072121
:10547000442001550998C0F307414520015509987A
:10548000010E4620015584F82460C6F3072125202B
:105490000155C6F3074126200155310E272001553D
:1054A000022084F82C0000212D2001552E200155CA
:1054B0002F200155012084F83000312001550620AD
:1054C00084F8320033200155802084F840002920E0
:1054D00084F842001322F7A104F14700FDF774FDA0
:1054E0001FE0099884F827000998C0F307212820B5
:1054F00001550998C0F30741292001550998010E6B
:105500002A200155A675310AE175802084F824000F
:10551000292084F826001322EBA104F12B00FDF7CB
:1055200053FD552084F8FE01AA2140F2FF100155D9
:105530000123424621460C98FDF7E9FC08B1012001
:10554000D9E5032D06D1012308F1060221460C9866
:10555000FDF7DDFC079808904FF0000A61E04FF47A
:10556000007200212046FDF73CFD0E980990032DA6
:1055700014D0012D01D1D94801E06FF0FF00099945
:1055800008430990099820700998000A60700998EA
:10559000000CA0700998000EE07019E0099860F006
:1055A000FF000990099820700998000A6070099816
:1055B000000CA0700998000EE070FF202071FF2100
:1055C0006171A171E17120726172A1720F21E172AA
:1055D0000898411C02460123089121460C98FDF7CA
:1055E00096FC08B1012086E54FF4007200212046A8
:1055F000FDF7F7FC012009900EE00898411C0246D7
:105600000123089121460C98FDF781FC08B1012087
:1056100071E50998401C09900998B042EDD30AF150
:10562000010ABAF1000F9AD0032D01D1484600E0DB
:105630000298824600BF0898411C02460123089147
:1056400021460C98FDF763FC08B1012053E5AAF14F
:105650000100B0F1000AEED1032D46D15220207096
:1056600060706120A0704120E070722084F8E40135
:10567000722140F2E51001554121401C0155612184
:10568000401C0155781E84F8E801C0F3072140F260
:10569000E9100155781EC0F307414FF4F57001552C
:1056A000781E010E40F2EB100155022084F8EC0147
:1056B000002140F2ED100155401C0155401C0155E0
:1056C000552084F8FE01AA2140F2FF100155012364
:1056D00008F1010221460C98FDF719FC012308F19D
:1056E000070221460C98FDF712FC002211460C9887
:1056F000FDF72CFC08B10120FDE40020FBE42DE9BE
:10570000FC4707468846914600243E4613E06B4618
:10571000012201A94846FEF7ECFC0098012800D0C0
:105720000DE09DF8045000BF06F8015B641C0A2DD3
:1057300000D104E000BFA8F10100A042E7DC00BFF7
:105740000020307014B13846BDE8FC870020FBE72C
:10575000F8B504460E4600BF6568002D00DAF8BDB6
:1057600028466D1C04F10C010E543D2D0CDB6B46DC
:105770002A462068FEF79EFD0098A84201D100202D
:1057800001E04FF0FF3005466560A068401CA06056
:1057900000BFE4E730B595B004460D460295002001
:1057A00003900490214602A8FFF7D2FF0398002837
:1057B0000DDB01AB05A9DDE90202FEF77BFD30B987
:1057C00001990398884202D1049815B030BD4FF07A
:1057D000FF30FAE730B595B004460D46029500203B
:1057E0000390049004E014F8011B02A8FFF7B0FF37
:1057F00020780028F7D1039800280DDB01AB05A91C
:10580000DDE90202FEF756FD30B90199039888429E
:1058100002D1049815B030BD4FF0FF30FAE70FB455
:105820002DE9F04F9BB02498019000200290039046
:1058300026A81A9000BF259810F8014B259004B9AE
:1058400024E1252C04D0214601A8FFF781FFF2E7CF
:10585000002006468146259810F8014B2590302CF3
:1058600005D10126259810F8014B259006E02D2C36
:1058700004D10226259810F8014B259009E009EB88
:10588000890004EB4000A0F13009259810F8014B85
:105890002590302C01DB392CF1DD6C2C01D04C2C07
:1058A00005D146F00406259810F8014B2590BCB9A7
:1058B000ECE000004E4F204E414D45202020204678
:1058C00041543332202020004E4F204E414D452080
:1058D00020202046415420202020200000FFFF00EF
:1058E0002546612D04DB7A2D02DCA5F12000C5B22E
:1058F0004F2D49D006DC422D43D0432D38D0442DC6
:105900004CD144E0532D04D0552D41D0582D45D1D4
:1059100041E01A9850F804BB1A904FF0000801E0DB
:1059200008F101081BF808000028F9D106F0020070
:1059300048B903E0202101A8FFF70AFF404608F11B
:1059400001084845F6D304E01BF8011B01A8FFF746
:10595000FFFE9BF800000028F6D103E0202101A8FB
:10596000FFF7F6FE404608F101084845F6D362E726
:105970001A9810F8042BD1B21A9001A8FFF7E8FE8C
:1059800059E7022019900EE0082019900BE000BFA3
:105990000A20199007E01020199004E0214601A880
:1059A000FFF7D6FE47E700BF06F0040028B11A98BB
:1059B00000681A99091D1A910CE0442D05D11A9816
:1059C00000681A99091D1A9104E01A9800681A993A
:1059D000091D1A918246442D06D10AF0004018B1E3
:1059E000CAF1000A46F00806002700BF1998BAFB62
:1059F000F0F100FB11A0C5B21998BAFBF0FA092D1D
:105A000006DD782C01D1272000E007202844C5B20C
:105A100005F13000C2B238467F1C14A90A54BAF10D
:105A2000000F01D0102FE1D306F0080020B12D2285
:105A300038467F1C14A90A54B84606F0010008B184
:105A4000302000E02020054603E0294601A8FFF7AA
:105A50007FFE06F0020020B9404608F101084845E3
:105A6000F3D300BF781E074614AA115C01A8FFF704
:105A70006FFE002FF6D103E0294601A8FFF768FE6C
:105A8000404608F101084845F6D3D4E600BF00209F
:105A90001A900298002810DB18AB04A9DDE9010276
:105AA000FEF708FC48B918990298884205D1039876
:105AB0001BB0BDE8F00F5DF814FB4FF0FF30F7E7C7
:105AC00010B500240EE04FF40C710020FDF79BF997
:105AD0005C4941F82400084650F8240000B903E06E
